{
  "contractName": "Marketplace",
  "abi": [
    {
      "inputs": [],
      "stateMutability": "nonpayable",
      "type": "constructor"
    },
    {
      "anonymous": false,
      "inputs": [
        {
          "indexed": true,
          "internalType": "address",
          "name": "account",
          "type": "address"
        },
        {
          "indexed": true,
          "internalType": "address",
          "name": "operator",
          "type": "address"
        },
        {
          "indexed": false,
          "internalType": "bool",
          "name": "approved",
          "type": "bool"
        }
      ],
      "name": "ApprovalForAll",
      "type": "event"
    },
    {
      "anonymous": false,
      "inputs": [
        {
          "indexed": true,
          "internalType": "address",
          "name": "previousOwner",
          "type": "address"
        },
        {
          "indexed": true,
          "internalType": "address",
          "name": "newOwner",
          "type": "address"
        }
      ],
      "name": "OwnershipTransferred",
      "type": "event"
    },
    {
      "anonymous": false,
      "inputs": [
        {
          "indexed": true,
          "internalType": "address",
          "name": "operator",
          "type": "address"
        },
        {
          "indexed": true,
          "internalType": "address",
          "name": "from",
          "type": "address"
        },
        {
          "indexed": true,
          "internalType": "address",
          "name": "to",
          "type": "address"
        },
        {
          "indexed": false,
          "internalType": "uint256[]",
          "name": "ids",
          "type": "uint256[]"
        },
        {
          "indexed": false,
          "internalType": "uint256[]",
          "name": "values",
          "type": "uint256[]"
        }
      ],
      "name": "TransferBatch",
      "type": "event"
    },
    {
      "anonymous": false,
      "inputs": [
        {
          "indexed": true,
          "internalType": "address",
          "name": "operator",
          "type": "address"
        },
        {
          "indexed": true,
          "internalType": "address",
          "name": "from",
          "type": "address"
        },
        {
          "indexed": true,
          "internalType": "address",
          "name": "to",
          "type": "address"
        },
        {
          "indexed": false,
          "internalType": "uint256",
          "name": "id",
          "type": "uint256"
        },
        {
          "indexed": false,
          "internalType": "uint256",
          "name": "value",
          "type": "uint256"
        }
      ],
      "name": "TransferSingle",
      "type": "event"
    },
    {
      "anonymous": false,
      "inputs": [
        {
          "indexed": false,
          "internalType": "string",
          "name": "value",
          "type": "string"
        },
        {
          "indexed": true,
          "internalType": "uint256",
          "name": "id",
          "type": "uint256"
        }
      ],
      "name": "URI",
      "type": "event"
    },
    {
      "anonymous": false,
      "inputs": [
        {
          "indexed": false,
          "internalType": "uint256",
          "name": "receiptId",
          "type": "uint256"
        },
        {
          "indexed": false,
          "internalType": "uint256",
          "name": "productId",
          "type": "uint256"
        },
        {
          "indexed": false,
          "internalType": "uint256",
          "name": "quantity",
          "type": "uint256"
        },
        {
          "indexed": false,
          "internalType": "uint256",
          "name": "totalCost",
          "type": "uint256"
        },
        {
          "indexed": false,
          "internalType": "address",
          "name": "buyer",
          "type": "address"
        },
        {
          "indexed": false,
          "internalType": "address",
          "name": "seller",
          "type": "address"
        }
      ],
      "name": "newOrder",
      "type": "event"
    },
    {
      "anonymous": false,
      "inputs": [
        {
          "indexed": false,
          "internalType": "uint256",
          "name": "productId",
          "type": "uint256"
        },
        {
          "indexed": false,
          "internalType": "string",
          "name": "name",
          "type": "string"
        },
        {
          "indexed": false,
          "internalType": "uint256",
          "name": "price",
          "type": "uint256"
        },
        {
          "indexed": false,
          "internalType": "uint256",
          "name": "quantity",
          "type": "uint256"
        },
        {
          "indexed": false,
          "internalType": "address",
          "name": "seller",
          "type": "address"
        }
      ],
      "name": "newProduct",
      "type": "event"
    },
    {
      "inputs": [],
      "name": "Owner",
      "outputs": [
        {
          "internalType": "address payable",
          "name": "",
          "type": "address"
        }
      ],
      "stateMutability": "view",
      "type": "function",
      "constant": true
    },
    {
      "inputs": [
        {
          "internalType": "uint256",
          "name": "",
          "type": "uint256"
        }
      ],
      "name": "Products",
      "outputs": [
        {
          "internalType": "string",
          "name": "name",
          "type": "string"
        },
        {
          "internalType": "uint256",
          "name": "price",
          "type": "uint256"
        },
        {
          "internalType": "uint256",
          "name": "quantity",
          "type": "uint256"
        },
        {
          "internalType": "address payable",
          "name": "seller",
          "type": "address"
        }
      ],
      "stateMutability": "view",
      "type": "function",
      "constant": true
    },
    {
      "inputs": [
        {
          "internalType": "uint256",
          "name": "",
          "type": "uint256"
        }
      ],
      "name": "Receipts",
      "outputs": [
        {
          "internalType": "uint256",
          "name": "productId",
          "type": "uint256"
        },
        {
          "internalType": "uint256",
          "name": "quantity",
          "type": "uint256"
        },
        {
          "internalType": "uint256",
          "name": "totalCost",
          "type": "uint256"
        },
        {
          "internalType": "address payable",
          "name": "buyer",
          "type": "address"
        },
        {
          "internalType": "address payable",
          "name": "seller",
          "type": "address"
        }
      ],
      "stateMutability": "view",
      "type": "function",
      "constant": true
    },
    {
      "inputs": [
        {
          "internalType": "address",
          "name": "account",
          "type": "address"
        },
        {
          "internalType": "uint256",
          "name": "id",
          "type": "uint256"
        }
      ],
      "name": "balanceOf",
      "outputs": [
        {
          "internalType": "uint256",
          "name": "",
          "type": "uint256"
        }
      ],
      "stateMutability": "view",
      "type": "function",
      "constant": true
    },
    {
      "inputs": [
        {
          "internalType": "address[]",
          "name": "accounts",
          "type": "address[]"
        },
        {
          "internalType": "uint256[]",
          "name": "ids",
          "type": "uint256[]"
        }
      ],
      "name": "balanceOfBatch",
      "outputs": [
        {
          "internalType": "uint256[]",
          "name": "",
          "type": "uint256[]"
        }
      ],
      "stateMutability": "view",
      "type": "function",
      "constant": true
    },
    {
      "inputs": [
        {
          "internalType": "address",
          "name": "account",
          "type": "address"
        },
        {
          "internalType": "uint256",
          "name": "id",
          "type": "uint256"
        },
        {
          "internalType": "uint256",
          "name": "amount",
          "type": "uint256"
        }
      ],
      "name": "burn",
      "outputs": [],
      "stateMutability": "nonpayable",
      "type": "function"
    },
    {
      "inputs": [],
      "name": "buyerReceipt",
      "outputs": [
        {
          "internalType": "uint256",
          "name": "",
          "type": "uint256"
        }
      ],
      "stateMutability": "view",
      "type": "function",
      "constant": true
    },
    {
      "inputs": [
        {
          "internalType": "address",
          "name": "account",
          "type": "address"
        },
        {
          "internalType": "address",
          "name": "operator",
          "type": "address"
        }
      ],
      "name": "isApprovedForAll",
      "outputs": [
        {
          "internalType": "bool",
          "name": "",
          "type": "bool"
        }
      ],
      "stateMutability": "view",
      "type": "function",
      "constant": true
    },
    {
      "inputs": [
        {
          "internalType": "address",
          "name": "account",
          "type": "address"
        },
        {
          "internalType": "bytes",
          "name": "description",
          "type": "bytes"
        }
      ],
      "name": "mint",
      "outputs": [],
      "stateMutability": "nonpayable",
      "type": "function"
    },
    {
      "inputs": [],
      "name": "owner",
      "outputs": [
        {
          "internalType": "address",
          "name": "",
          "type": "address"
        }
      ],
      "stateMutability": "view",
      "type": "function",
      "constant": true
    },
    {
      "inputs": [],
      "name": "productId",
      "outputs": [
        {
          "internalType": "uint256",
          "name": "",
          "type": "uint256"
        }
      ],
      "stateMutability": "view",
      "type": "function",
      "constant": true
    },
    {
      "inputs": [],
      "name": "receiptId",
      "outputs": [
        {
          "internalType": "uint256",
          "name": "",
          "type": "uint256"
        }
      ],
      "stateMutability": "view",
      "type": "function",
      "constant": true
    },
    {
      "inputs": [],
      "name": "renounceOwnership",
      "outputs": [],
      "stateMutability": "nonpayable",
      "type": "function"
    },
    {
      "inputs": [
        {
          "internalType": "address",
          "name": "from",
          "type": "address"
        },
        {
          "internalType": "address",
          "name": "to",
          "type": "address"
        },
        {
          "internalType": "uint256[]",
          "name": "ids",
          "type": "uint256[]"
        },
        {
          "internalType": "uint256[]",
          "name": "amounts",
          "type": "uint256[]"
        },
        {
          "internalType": "bytes",
          "name": "data",
          "type": "bytes"
        }
      ],
      "name": "safeBatchTransferFrom",
      "outputs": [],
      "stateMutability": "nonpayable",
      "type": "function"
    },
    {
      "inputs": [
        {
          "internalType": "address",
          "name": "from",
          "type": "address"
        },
        {
          "internalType": "address",
          "name": "to",
          "type": "address"
        },
        {
          "internalType": "uint256",
          "name": "id",
          "type": "uint256"
        },
        {
          "internalType": "uint256",
          "name": "amount",
          "type": "uint256"
        },
        {
          "internalType": "bytes",
          "name": "data",
          "type": "bytes"
        }
      ],
      "name": "safeTransferFrom",
      "outputs": [],
      "stateMutability": "nonpayable",
      "type": "function"
    },
    {
      "inputs": [],
      "name": "sellerReceipt",
      "outputs": [
        {
          "internalType": "uint256",
          "name": "",
          "type": "uint256"
        }
      ],
      "stateMutability": "view",
      "type": "function",
      "constant": true
    },
    {
      "inputs": [
        {
          "internalType": "address",
          "name": "operator",
          "type": "address"
        },
        {
          "internalType": "bool",
          "name": "approved",
          "type": "bool"
        }
      ],
      "name": "setApprovalForAll",
      "outputs": [],
      "stateMutability": "nonpayable",
      "type": "function"
    },
    {
      "inputs": [
        {
          "internalType": "bytes4",
          "name": "interfaceId",
          "type": "bytes4"
        }
      ],
      "name": "supportsInterface",
      "outputs": [
        {
          "internalType": "bool",
          "name": "",
          "type": "bool"
        }
      ],
      "stateMutability": "view",
      "type": "function",
      "constant": true
    },
    {
      "inputs": [
        {
          "internalType": "address",
          "name": "newOwner",
          "type": "address"
        }
      ],
      "name": "transferOwnership",
      "outputs": [],
      "stateMutability": "nonpayable",
      "type": "function"
    },
    {
      "inputs": [
        {
          "internalType": "uint256",
          "name": "",
          "type": "uint256"
        }
      ],
      "name": "uri",
      "outputs": [
        {
          "internalType": "string",
          "name": "",
          "type": "string"
        }
      ],
      "stateMutability": "view",
      "type": "function",
      "constant": true
    },
    {
      "inputs": [
        {
          "internalType": "string",
          "name": "_name",
          "type": "string"
        },
        {
          "internalType": "uint256",
          "name": "_price",
          "type": "uint256"
        },
        {
          "internalType": "uint256",
          "name": "_quantity",
          "type": "uint256"
        }
      ],
      "name": "listItem",
      "outputs": [],
      "stateMutability": "nonpayable",
      "type": "function"
    },
    {
      "inputs": [
        {
          "internalType": "uint256",
          "name": "_productId",
          "type": "uint256"
        },
        {
          "internalType": "uint256",
          "name": "_quantity",
          "type": "uint256"
        }
      ],
      "name": "buy",
      "outputs": [],
      "stateMutability": "payable",
      "type": "function",
      "payable": true
    },
    {
      "inputs": [
        {
          "internalType": "uint256",
          "name": "_receiptId",
          "type": "uint256"
        }
      ],
      "name": "orderAccept",
      "outputs": [],
      "stateMutability": "payable",
      "type": "function",
      "payable": true
    },
    {
      "inputs": [
        {
          "internalType": "uint256",
          "name": "_receiptId",
          "type": "uint256"
        }
      ],
      "name": "orderReject",
      "outputs": [],
      "stateMutability": "payable",
      "type": "function",
      "payable": true
    },
    {
      "inputs": [
        {
          "internalType": "uint256",
          "name": "_receiptId",
          "type": "uint256"
        }
      ],
      "name": "itemDelivered",
      "outputs": [],
      "stateMutability": "nonpayable",
      "type": "function"
    }
  ],
  "bytecode": "0x608060405261dead600a60006101000a81548173ffffffffffffffffffffffffffffffffffffffff021916908373ffffffffffffffffffffffffffffffffffffffff1602179055503480156200005457600080fd5b506040518060600160405280602e81526020016200526e602e91396200008081620003ef60201b60201c565b50620000a1620000956200040b60201b60201c565b6200041360201b60201c565b33600560006101000a81548173ffffffffffffffffffffffffffffffffffffffff021916908373ffffffffffffffffffffffffffffffffffffffff160217905550600b6040518060a00160405280600081526020016000815260200160008152602001600a60009054906101000a900473ffffffffffffffffffffffffffffffffffffffff1673ffffffffffffffffffffffffffffffffffffffff168152602001600a60009054906101000a900473ffffffffffffffffffffffffffffffffffffffff1673ffffffffffffffffffffffffffffffffffffffff16815250908060018154018082558091505060019003906000526020600020906005020160009091909190915060008201518160000155602082015181600101556040820151816002015560608201518160030160006101000a81548173ffffffffffffffffffffffffffffffffffffffff021916908373ffffffffffffffffffffffffffffffffffffffff16021790555060808201518160040160006101000a81548173ffffffffffffffffffffffffffffffffffffffff021916908373ffffffffffffffffffffffffffffffffffffffff1602179055505050600c604051806080016040528060068054620002719062000589565b80601f01602080910402602001604051908101604052809291908181526020018280546200029f9062000589565b8015620002f05780601f10620002c457610100808354040283529160200191620002f0565b820191906000526020600020905b815481529060010190602001808311620002d257829003601f168201915b505050505081526020016000815260200160008152602001600a60009054906101000a900473ffffffffffffffffffffffffffffffffffffffff1673ffffffffffffffffffffffffffffffffffffffff16815250908060018154018082558091505060019003906000526020600020906004020160009091909190915060008201518160000190805190602001906200038b929190620004d9565b50602082015181600101556040820151816002015560608201518160030160006101000a81548173ffffffffffffffffffffffffffffffffffffffff021916908373ffffffffffffffffffffffffffffffffffffffff1602179055505050620005ee565b806002908051906020019062000407929190620004d9565b5050565b600033905090565b6000600360009054906101000a900473ffffffffffffffffffffffffffffffffffffffff16905081600360006101000a81548173ffffffffffffffffffffffffffffffffffffffff021916908373ffffffffffffffffffffffffffffffffffffffff1602179055508173ffffffffffffffffffffffffffffffffffffffff168173ffffffffffffffffffffffffffffffffffffffff167f8be0079c531659141344cd1fd0a4f28419497f9722a3daafe3b4186f6b6457e060405160405180910390a35050565b828054620004e79062000589565b90600052602060002090601f0160209004810192826200050b576000855562000557565b82601f106200052657805160ff191683800117855562000557565b8280016001018555821562000557579182015b828111156200055657825182559160200191906001019062000539565b5b5090506200056691906200056a565b5090565b5b80821115620005855760008160009055506001016200056b565b5090565b60006002820490506001821680620005a257607f821691505b60208210811415620005b957620005b8620005bf565b5b50919050565b7f4e487b7100000000000000000000000000000000000000000000000000000000600052602260045260246000fd5b614c7080620005fe6000396000f3fe6080604052600436106101655760003560e01c80638da5cb5b116100d1578063d6febde81161008a578063f176627911610064578063f17662791461052d578063f242432a14610556578063f2fde38b1461057f578063f5298aca146105a857610165565b8063d6febde814610494578063dba3f6aa146104b0578063e985e9c5146104f057610165565b80638da5cb5b14610398578063a22cb465146103c3578063b4a99a4e146103ec578063b510391f14610417578063c5ce391114610440578063cef4c9b41461046b57610165565b80632eb2c2d6116101235780632eb2c2d6146102935780634e1273f4146102bc578063667aa606146102f9578063715018a61461031557806371b1b9971461032c57806381fca9991461036d57610165565b8062fdd58e1461016a57806301ffc9a7146101a7578063044fbeac146101e45780630e89341c1461020f5780631352c70b1461024c5780631775ec8414610268575b600080fd5b34801561017657600080fd5b50610191600480360381019061018c91906134b8565b6105d1565b60405161019e9190613fd4565b60405180910390f35b3480156101b357600080fd5b506101ce60048036038101906101c991906135af565b61069a565b6040516101db9190613ceb565b60405180910390f35b3480156101f057600080fd5b506101f961077c565b6040516102069190613fd4565b60405180910390f35b34801561021b57600080fd5b506102366004803603810190610231919061366d565b610781565b6040516102439190613d06565b60405180910390f35b6102666004803603810190610261919061366d565b610815565b005b34801561027457600080fd5b5061027d610a41565b60405161028a9190613fd4565b60405180910390f35b34801561029f57600080fd5b506102ba60048036038101906102b591906132da565b610a47565b005b3480156102c857600080fd5b506102e360048036038101906102de9190613543565b610ae8565b6040516102f09190613c92565b60405180910390f35b610313600480360381019061030e919061366d565b610c99565b005b34801561032157600080fd5b5061032a610dc8565b005b34801561033857600080fd5b50610353600480360381019061034e919061366d565b610e50565b604051610364959493929190614074565b60405180910390f35b34801561037957600080fd5b50610382610ed6565b60405161038f9190613fd4565b60405180910390f35b3480156103a457600080fd5b506103ad610edb565b6040516103ba9190613b9a565b60405180910390f35b3480156103cf57600080fd5b506103ea60048036038101906103e59190613428565b610f05565b005b3480156103f857600080fd5b50610401611086565b60405161040e9190613bb5565b60405180910390f35b34801561042357600080fd5b5061043e60048036038101906104399190613464565b6110ac565b005b34801561044c57600080fd5b506104556110be565b6040516104629190613fd4565b60405180910390f35b34801561047757600080fd5b50610492600480360381019061048d919061366d565b6110c4565b005b6104ae60048036038101906104a99190613696565b61150d565b005b3480156104bc57600080fd5b506104d760048036038101906104d2919061366d565b611ad7565b6040516104e79493929190613d28565b60405180910390f35b3480156104fc57600080fd5b506105176004803603810190610512919061329e565b611bbf565b6040516105249190613ceb565b60405180910390f35b34801561053957600080fd5b50610554600480360381019061054f9190613601565b611c53565b005b34801561056257600080fd5b5061057d60048036038101906105789190613399565b611e2e565b005b34801561058b57600080fd5b506105a660048036038101906105a19190613275565b611ecf565b005b3480156105b457600080fd5b506105cf60048036038101906105ca91906134f4565b611fc7565b005b60008073ffffffffffffffffffffffffffffffffffffffff168373ffffffffffffffffffffffffffffffffffffffff161415610642576040517f08c379a000000000000000000000000000000000000000000000000000000000815260040161063990613df4565b60405180910390fd5b60008083815260200190815260200160002060008473ffffffffffffffffffffffffffffffffffffffff1673ffffffffffffffffffffffffffffffffffffffff16815260200190815260200160002054905092915050565b60007fd9b67a26000000000000000000000000000000000000000000000000000000007bffffffffffffffffffffffffffffffffffffffffffffffffffffffff1916827bffffffffffffffffffffffffffffffffffffffffffffffffffffffff1916148061076557507f0e89341c000000000000000000000000000000000000000000000000000000007bffffffffffffffffffffffffffffffffffffffffffffffffffffffff1916827bffffffffffffffffffffffffffffffffffffffffffffffffffffffff1916145b8061077557506107748261200f565b5b9050919050565b600081565b60606002805461079090614429565b80601f01602080910402602001604051908101604052809291908181526020018280546107bc90614429565b80156108095780601f106107de57610100808354040283529160200191610809565b820191906000526020600020905b8154815290600101906020018083116107ec57829003601f168201915b50505050509050919050565b803373ffffffffffffffffffffffffffffffffffffffff16600b8281548110610867577f4e487b7100000000000000000000000000000000000000000000000000000000600052603260045260246000fd5b906000526020600020906005020160040160009054906101000a900473ffffffffffffffffffffffffffffffffffffffff1673ffffffffffffffffffffffffffffffffffffffff16146108ef576040517f08c379a00000000000000000000000000000000000000000000000000000000081526004016108e690613dd4565b60405180910390fd5b6001600760006101000a81548160ff0219169083600381111561093b577f4e487b7100000000000000000000000000000000000000000000000000000000600052602160045260246000fd5b0217905550600b828154811061097a577f4e487b7100000000000000000000000000000000000000000000000000000000600052603260045260246000fd5b906000526020600020906005020160030160009054906101000a900473ffffffffffffffffffffffffffffffffffffffff1673ffffffffffffffffffffffffffffffffffffffff166108fc600b84815481106109ff577f4e487b7100000000000000000000000000000000000000000000000000000000600052603260045260246000fd5b9060005260206000209060050201600201549081150290604051600060405180830381858888f19350505050158015610a3c573d6000803e3d6000fd5b505050565b60085481565b610a4f612079565b73ffffffffffffffffffffffffffffffffffffffff168573ffffffffffffffffffffffffffffffffffffffff161480610a955750610a9485610a8f612079565b611bbf565b5b610ad4576040517f08c379a0000000000000000000000000000000000000000000000000000000008152600401610acb90613e94565b60405180910390fd5b610ae18585858585612081565b5050505050565b60608151835114610b2e576040517f08c379a0000000000000000000000000000000000000000000000000000000008152600401610b2590613f74565b60405180910390fd5b6000835167ffffffffffffffff811115610b71577f4e487b7100000000000000000000000000000000000000000000000000000000600052604160045260246000fd5b604051908082528060200260200182016040528015610b9f5781602001602082028036833780820191505090505b50905060005b8451811015610c8e57610c38858281518110610bea577f4e487b7100000000000000000000000000000000000000000000000000000000600052603260045260246000fd5b6020026020010151858381518110610c2b577f4e487b7100000000000000000000000000000000000000000000000000000000600052603260045260246000fd5b60200260200101516105d1565b828281518110610c71577f4e487b7100000000000000000000000000000000000000000000000000000000600052603260045260246000fd5b60200260200101818152505080610c879061448c565b9050610ba5565b508091505092915050565b803373ffffffffffffffffffffffffffffffffffffffff16600b8281548110610ceb577f4e487b7100000000000000000000000000000000000000000000000000000000600052603260045260246000fd5b906000526020600020906005020160040160009054906101000a900473ffffffffffffffffffffffffffffffffffffffff1673ffffffffffffffffffffffffffffffffffffffff1614610d73576040517f08c379a0000000000000000000000000000000000000000000000000000000008152600401610d6a90613dd4565b60405180910390fd5b6002600760006101000a81548160ff02191690836003811115610dbf577f4e487b7100000000000000000000000000000000000000000000000000000000600052602160045260246000fd5b02179055505050565b610dd0612079565b73ffffffffffffffffffffffffffffffffffffffff16610dee610edb565b73ffffffffffffffffffffffffffffffffffffffff1614610e44576040517f08c379a0000000000000000000000000000000000000000000000000000000008152600401610e3b90613f14565b60405180910390fd5b610e4e60006123e1565b565b600b8181548110610e6057600080fd5b90600052602060002090600502016000915090508060000154908060010154908060020154908060030160009054906101000a900473ffffffffffffffffffffffffffffffffffffffff16908060040160009054906101000a900473ffffffffffffffffffffffffffffffffffffffff16905085565b600181565b6000600360009054906101000a900473ffffffffffffffffffffffffffffffffffffffff16905090565b8173ffffffffffffffffffffffffffffffffffffffff16610f24612079565b73ffffffffffffffffffffffffffffffffffffffff161415610f7b576040517f08c379a0000000000000000000000000000000000000000000000000000000008152600401610f7290613f54565b60405180910390fd5b8060016000610f88612079565b73ffffffffffffffffffffffffffffffffffffffff1673ffffffffffffffffffffffffffffffffffffffff16815260200190815260200160002060008473ffffffffffffffffffffffffffffffffffffffff1673ffffffffffffffffffffffffffffffffffffffff16815260200190815260200160002060006101000a81548160ff0219169083151502179055508173ffffffffffffffffffffffffffffffffffffffff16611035612079565b73ffffffffffffffffffffffffffffffffffffffff167f17307eab39ab6107e8899845ad3d59bd9653f200f220920489ca2b5937696c318360405161107a9190613ceb565b60405180910390a35050565b600560009054906101000a900473ffffffffffffffffffffffffffffffffffffffff1681565b6110ba8260006001846124a7565b5050565b60095481565b803373ffffffffffffffffffffffffffffffffffffffff16600b8281548110611116577f4e487b7100000000000000000000000000000000000000000000000000000000600052603260045260246000fd5b906000526020600020906005020160030160009054906101000a900473ffffffffffffffffffffffffffffffffffffffff1673ffffffffffffffffffffffffffffffffffffffff161461119e576040517f08c379a000000000000000000000000000000000000000000000000000000000815260040161119590613f34565b60405180910390fd5b600b82815481106111d8577f4e487b7100000000000000000000000000000000000000000000000000000000600052603260045260246000fd5b906000526020600020906005020160040160009054906101000a900473ffffffffffffffffffffffffffffffffffffffff1673ffffffffffffffffffffffffffffffffffffffff166108fc600b848154811061125d577f4e487b7100000000000000000000000000000000000000000000000000000000600052603260045260246000fd5b9060005260206000209060050201600201549081150290604051600060405180830381858888f1935050505015801561129a573d6000803e3d6000fd5b50600042600b8054905044600b86815481106112df577f4e487b7100000000000000000000000000000000000000000000000000000000600052603260045260246000fd5b906000526020600020906005020160000154600b878154811061132b577f4e487b7100000000000000000000000000000000000000000000000000000000600052603260045260246000fd5b906000526020600020906005020160010154600b8881548110611377577f4e487b7100000000000000000000000000000000000000000000000000000000600052603260045260246000fd5b906000526020600020906005020160020154600b89815481106113c3577f4e487b7100000000000000000000000000000000000000000000000000000000600052603260045260246000fd5b906000526020600020906005020160030160009054906101000a900473ffffffffffffffffffffffffffffffffffffffff16600b8a8154811061142f577f4e487b7100000000000000000000000000000000000000000000000000000000600052603260045260246000fd5b906000526020600020906005020160040160009054906101000a900473ffffffffffffffffffffffffffffffffffffffff16604051602001611478989796959493929190613b08565b604051602081830303815290604052905061149333826110ac565b611508600b84815481106114d0577f4e487b7100000000000000000000000000000000000000000000000000000000600052603260045260246000fd5b906000526020600020906005020160040160009054906101000a900473ffffffffffffffffffffffffffffffffffffffff16826110ac565b505050565b81600c8181548110611548577f4e487b7100000000000000000000000000000000000000000000000000000000600052603260045260246000fd5b906000526020600020906004020160030160009054906101000a900473ffffffffffffffffffffffffffffffffffffffff1673ffffffffffffffffffffffffffffffffffffffff163373ffffffffffffffffffffffffffffffffffffffff1614156115e8576040517f08c379a00000000000000000000000000000000000000000000000000000000081526004016115df90613eb4565b60405180910390fd5b600c8381548110611622577f4e487b7100000000000000000000000000000000000000000000000000000000600052603260045260246000fd5b906000526020600020906004020160010154828082611641919061429d565b3414611682576040517f08c379a000000000000000000000000000000000000000000000000000000000815260040161167990613d94565b60405180910390fd5b600060018111156116bc577f4e487b7100000000000000000000000000000000000000000000000000000000600052602160045260246000fd5b600560149054906101000a900460ff166001811115611704577f4e487b7100000000000000000000000000000000000000000000000000000000600052602160045260246000fd5b1461170e57600080fd5b83600c8681548110611749577f4e487b7100000000000000000000000000000000000000000000000000000000600052603260045260246000fd5b9060005260206000209060040201600201600082825461176991906142f7565b925050819055506000600760006101000a81548160ff021916908360038111156117bc577f4e487b7100000000000000000000000000000000000000000000000000000000600052602160045260246000fd5b0217905550600084600c87815481106117fe577f4e487b7100000000000000000000000000000000000000000000000000000000600052603260045260246000fd5b90600052602060002090600402016001015461181a919061429d565b90506008600081548092919061182f9061448c565b9190505550600b6040518060a001604052808881526020018781526020018381526020013373ffffffffffffffffffffffffffffffffffffffff168152602001600c89815481106118a9577f4e487b7100000000000000000000000000000000000000000000000000000000600052603260045260246000fd5b906000526020600020906004020160030160009054906101000a900473ffffffffffffffffffffffffffffffffffffffff1673ffffffffffffffffffffffffffffffffffffffff16815250908060018154018082558091505060019003906000526020600020906005020160009091909190915060008201518160000155602082015181600101556040820151816002015560608201518160030160006101000a81548173ffffffffffffffffffffffffffffffffffffffff021916908373ffffffffffffffffffffffffffffffffffffffff16021790555060808201518160040160006101000a81548173ffffffffffffffffffffffffffffffffffffffff021916908373ffffffffffffffffffffffffffffffffffffffff16021790555050507fc64d33f374321e1b83fae29f825885f9a615007c6cb350128682cfcdcd5633a7600854878788600c8b81548110611a2c577f4e487b7100000000000000000000000000000000000000000000000000000000600052603260045260246000fd5b906000526020600020906004020160010154611a48919061429d565b33600c8c81548110611a83577f4e487b7100000000000000000000000000000000000000000000000000000000600052603260045260246000fd5b906000526020600020906004020160030160009054906101000a900473ffffffffffffffffffffffffffffffffffffffff16604051611ac7969594939291906140c7565b60405180910390a1505050505050565b600c8181548110611ae757600080fd5b9060005260206000209060040201600091509050806000018054611b0a90614429565b80601f0160208091040260200160405190810160405280929190818152602001828054611b3690614429565b8015611b835780601f10611b5857610100808354040283529160200191611b83565b820191906000526020600020905b815481529060010190602001808311611b6657829003601f168201915b5050505050908060010154908060020154908060030160009054906101000a900473ffffffffffffffffffffffffffffffffffffffff16905084565b6000600160008473ffffffffffffffffffffffffffffffffffffffff1673ffffffffffffffffffffffffffffffffffffffff16815260200190815260200160002060008373ffffffffffffffffffffffffffffffffffffffff1673ffffffffffffffffffffffffffffffffffffffff16815260200190815260200160002060009054906101000a900460ff16905092915050565b60096000815480929190611c669061448c565b9190505550600c604051806080016040528086868080601f016020809104026020016040519081016040528093929190818152602001838380828437600081840152601f19601f8201169050808301925050505050505081526020018481526020018381526020013373ffffffffffffffffffffffffffffffffffffffff1681525090806001815401808255809150506001900390600052602060002090600402016000909190919091506000820151816000019080519060200190611d2d929190612f8b565b50602082015181600101556040820151816002015560608201518160030160006101000a81548173ffffffffffffffffffffffffffffffffffffffff021916908373ffffffffffffffffffffffffffffffffffffffff160217905550505060018110611e28576000600560146101000a81548160ff02191690836001811115611ddf577f4e487b7100000000000000000000000000000000000000000000000000000000600052602160045260246000fd5b02179055507f9538f37f3415699a7230042f74b18769944d69aed4a9324d06ac063ba9b0a4066009548585858533604051611e1f96959493929190613fef565b60405180910390a15b50505050565b611e36612079565b73ffffffffffffffffffffffffffffffffffffffff168573ffffffffffffffffffffffffffffffffffffffff161480611e7c5750611e7b85611e76612079565b611bbf565b5b611ebb576040517f08c379a0000000000000000000000000000000000000000000000000000000008152600401611eb290613e54565b60405180910390fd5b611ec8858585858561263d565b5050505050565b611ed7612079565b73ffffffffffffffffffffffffffffffffffffffff16611ef5610edb565b73ffffffffffffffffffffffffffffffffffffffff1614611f4b576040517f08c379a0000000000000000000000000000000000000000000000000000000008152600401611f4290613f14565b60405180910390fd5b600073ffffffffffffffffffffffffffffffffffffffff168173ffffffffffffffffffffffffffffffffffffffff161415611fbb576040517f08c379a0000000000000000000000000000000000000000000000000000000008152600401611fb290613e14565b60405180910390fd5b611fc4816123e1565b50565b8273ffffffffffffffffffffffffffffffffffffffff163373ffffffffffffffffffffffffffffffffffffffff1614611fff57600080fd5b61200a8383836128bf565b505050565b60007f01ffc9a7000000000000000000000000000000000000000000000000000000007bffffffffffffffffffffffffffffffffffffffffffffffffffffffff1916827bffffffffffffffffffffffffffffffffffffffffffffffffffffffff1916149050919050565b600033905090565b81518351146120c5576040517f08c379a00000000000000000000000000000000000000000000000000000000081526004016120bc90613f94565b60405180910390fd5b600073ffffffffffffffffffffffffffffffffffffffff168473ffffffffffffffffffffffffffffffffffffffff161415612135576040517f08c379a000000000000000000000000000000000000000000000000000000000815260040161212c90613e74565b60405180910390fd5b600061213f612079565b905061214f818787878787612adc565b60005b845181101561234c576000858281518110612196577f4e487b7100000000000000000000000000000000000000000000000000000000600052603260045260246000fd5b6020026020010151905060008583815181106121db577f4e487b7100000000000000000000000000000000000000000000000000000000600052603260045260246000fd5b60200260200101519050600080600084815260200190815260200160002060008b73ffffffffffffffffffffffffffffffffffffffff1673ffffffffffffffffffffffffffffffffffffffff1681526020019081526020016000205490508181101561227c576040517f08c379a000000000000000000000000000000000000000000000000000000000815260040161227390613ef4565b60405180910390fd5b81810360008085815260200190815260200160002060008c73ffffffffffffffffffffffffffffffffffffffff1673ffffffffffffffffffffffffffffffffffffffff168152602001908152602001600020819055508160008085815260200190815260200160002060008b73ffffffffffffffffffffffffffffffffffffffff1673ffffffffffffffffffffffffffffffffffffffff16815260200190815260200160002060008282546123319190614247565b92505081905550505050806123459061448c565b9050612152565b508473ffffffffffffffffffffffffffffffffffffffff168673ffffffffffffffffffffffffffffffffffffffff168273ffffffffffffffffffffffffffffffffffffffff167f4a39dc06d4c0dbc64b70af90fd698a233a518aa5d07e595d983b8c0526c8f7fb87876040516123c3929190613cb4565b60405180910390a46123d9818787878787612ae4565b505050505050565b6000600360009054906101000a900473ffffffffffffffffffffffffffffffffffffffff16905081600360006101000a81548173ffffffffffffffffffffffffffffffffffffffff021916908373ffffffffffffffffffffffffffffffffffffffff1602179055508173ffffffffffffffffffffffffffffffffffffffff168173ffffffffffffffffffffffffffffffffffffffff167f8be0079c531659141344cd1fd0a4f28419497f9722a3daafe3b4186f6b6457e060405160405180910390a35050565b600073ffffffffffffffffffffffffffffffffffffffff168473ffffffffffffffffffffffffffffffffffffffff161415612517576040517f08c379a000000000000000000000000000000000000000000000000000000000815260040161250e90613fb4565b60405180910390fd5b6000612521612079565b90506125428160008761253388612ccb565b61253c88612ccb565b87612adc565b8260008086815260200190815260200160002060008773ffffffffffffffffffffffffffffffffffffffff1673ffffffffffffffffffffffffffffffffffffffff16815260200190815260200160002060008282546125a19190614247565b925050819055508473ffffffffffffffffffffffffffffffffffffffff16600073ffffffffffffffffffffffffffffffffffffffff168273ffffffffffffffffffffffffffffffffffffffff167fc3d58168c5ae7397731d063d5bbf3d657854427343f4c083240f7aacaa2d0f62878760405161261f92919061404b565b60405180910390a461263681600087878787612d91565b5050505050565b600073ffffffffffffffffffffffffffffffffffffffff168473ffffffffffffffffffffffffffffffffffffffff1614156126ad576040517f08c379a00000000000000000000000000000000000000000000000000000000081526004016126a490613e74565b60405180910390fd5b60006126b7612079565b90506126d78187876126c888612ccb565b6126d188612ccb565b87612adc565b600080600086815260200190815260200160002060008873ffffffffffffffffffffffffffffffffffffffff1673ffffffffffffffffffffffffffffffffffffffff1681526020019081526020016000205490508381101561276e576040517f08c379a000000000000000000000000000000000000000000000000000000000815260040161276590613ef4565b60405180910390fd5b83810360008087815260200190815260200160002060008973ffffffffffffffffffffffffffffffffffffffff1673ffffffffffffffffffffffffffffffffffffffff168152602001908152602001600020819055508360008087815260200190815260200160002060008873ffffffffffffffffffffffffffffffffffffffff1673ffffffffffffffffffffffffffffffffffffffff16815260200190815260200160002060008282546128239190614247565b925050819055508573ffffffffffffffffffffffffffffffffffffffff168773ffffffffffffffffffffffffffffffffffffffff168373ffffffffffffffffffffffffffffffffffffffff167fc3d58168c5ae7397731d063d5bbf3d657854427343f4c083240f7aacaa2d0f6288886040516128a092919061404b565b60405180910390a46128b6828888888888612d91565b50505050505050565b600073ffffffffffffffffffffffffffffffffffffffff168373ffffffffffffffffffffffffffffffffffffffff16141561292f576040517f08c379a000000000000000000000000000000000000000000000000000000000815260040161292690613ed4565b60405180910390fd5b6000612939612079565b90506129698185600061294b87612ccb565b61295487612ccb565b60405180602001604052806000815250612adc565b600080600085815260200190815260200160002060008673ffffffffffffffffffffffffffffffffffffffff1673ffffffffffffffffffffffffffffffffffffffff16815260200190815260200160002054905082811015612a00576040517f08c379a00000000000000000000000000000000000000000000000000000000081526004016129f790613e34565b60405180910390fd5b82810360008086815260200190815260200160002060008773ffffffffffffffffffffffffffffffffffffffff1673ffffffffffffffffffffffffffffffffffffffff16815260200190815260200160002081905550600073ffffffffffffffffffffffffffffffffffffffff168573ffffffffffffffffffffffffffffffffffffffff168373ffffffffffffffffffffffffffffffffffffffff167fc3d58168c5ae7397731d063d5bbf3d657854427343f4c083240f7aacaa2d0f628787604051612acd92919061404b565b60405180910390a45050505050565b505050505050565b612b038473ffffffffffffffffffffffffffffffffffffffff16612f78565b15612cc3578373ffffffffffffffffffffffffffffffffffffffff1663bc197c8187878686866040518663ffffffff1660e01b8152600401612b49959493929190613bd0565b602060405180830381600087803b158015612b6357600080fd5b505af1925050508015612b9457506040513d601f19601f82011682018060405250810190612b9191906135d8565b60015b612c3a57612ba0614590565b806308c379a01415612bfd5750612bb5614b48565b80612bc05750612bff565b806040517f08c379a0000000000000000000000000000000000000000000000000000000008152600401612bf49190613d06565b60405180910390fd5b505b6040517f08c379a0000000000000000000000000000000000000000000000000000000008152600401612c3190613d74565b60405180910390fd5b63bc197c8160e01b7bffffffffffffffffffffffffffffffffffffffffffffffffffffffff1916817bffffffffffffffffffffffffffffffffffffffffffffffffffffffff191614612cc1576040517f08c379a0000000000000000000000000000000000000000000000000000000008152600401612cb890613db4565b60405180910390fd5b505b505050505050565b60606000600167ffffffffffffffff811115612d10577f4e487b7100000000000000000000000000000000000000000000000000000000600052604160045260246000fd5b604051908082528060200260200182016040528015612d3e5781602001602082028036833780820191505090505b5090508281600081518110612d7c577f4e487b7100000000000000000000000000000000000000000000000000000000600052603260045260246000fd5b60200260200101818152505080915050919050565b612db08473ffffffffffffffffffffffffffffffffffffffff16612f78565b15612f70578373ffffffffffffffffffffffffffffffffffffffff1663f23a6e6187878686866040518663ffffffff1660e01b8152600401612df6959493929190613c38565b602060405180830381600087803b158015612e1057600080fd5b505af1925050508015612e4157506040513d601f19601f82011682018060405250810190612e3e91906135d8565b60015b612ee757612e4d614590565b806308c379a01415612eaa5750612e62614b48565b80612e6d5750612eac565b806040517f08c379a0000000000000000000000000000000000000000000000000000000008152600401612ea19190613d06565b60405180910390fd5b505b6040517f08c379a0000000000000000000000000000000000000000000000000000000008152600401612ede90613d74565b60405180910390fd5b63f23a6e6160e01b7bffffffffffffffffffffffffffffffffffffffffffffffffffffffff1916817bffffffffffffffffffffffffffffffffffffffffffffffffffffffff191614612f6e576040517f08c379a0000000000000000000000000000000000000000000000000000000008152600401612f6590613db4565b60405180910390fd5b505b505050505050565b600080823b905060008111915050919050565b828054612f9790614429565b90600052602060002090601f016020900481019282612fb95760008555613000565b82601f10612fd257805160ff1916838001178555613000565b82800160010185558215613000579182015b82811115612fff578251825591602001919060010190612fe4565b5b50905061300d9190613011565b5090565b5b8082111561302a576000816000905550600101613012565b5090565b600061304161303c8461414d565b614128565b9050808382526020820190508285602086028201111561306057600080fd5b60005b8581101561309057816130768882613144565b845260208401935060208301925050600181019050613063565b5050509392505050565b60006130ad6130a884614179565b614128565b905080838252602082019050828560208602820111156130cc57600080fd5b60005b858110156130fc57816130e28882613260565b8452602084019350602083019250506001810190506130cf565b5050509392505050565b6000613119613114846141a5565b614128565b90508281526020810184848401111561313157600080fd5b61313c8482856143e7565b509392505050565b60008135905061315381614bde565b92915050565b600082601f83011261316a57600080fd5b813561317a84826020860161302e565b91505092915050565b600082601f83011261319457600080fd5b81356131a484826020860161309a565b91505092915050565b6000813590506131bc81614bf5565b92915050565b6000813590506131d181614c0c565b92915050565b6000815190506131e681614c0c565b92915050565b600082601f8301126131fd57600080fd5b813561320d848260208601613106565b91505092915050565b60008083601f84011261322857600080fd5b8235905067ffffffffffffffff81111561324157600080fd5b60208301915083600182028301111561325957600080fd5b9250929050565b60008135905061326f81614c23565b92915050565b60006020828403121561328757600080fd5b600061329584828501613144565b91505092915050565b600080604083850312156132b157600080fd5b60006132bf85828601613144565b92505060206132d085828601613144565b9150509250929050565b600080600080600060a086880312156132f257600080fd5b600061330088828901613144565b955050602061331188828901613144565b945050604086013567ffffffffffffffff81111561332e57600080fd5b61333a88828901613183565b935050606086013567ffffffffffffffff81111561335757600080fd5b61336388828901613183565b925050608086013567ffffffffffffffff81111561338057600080fd5b61338c888289016131ec565b9150509295509295909350565b600080600080600060a086880312156133b157600080fd5b60006133bf88828901613144565b95505060206133d088828901613144565b94505060406133e188828901613260565b93505060606133f288828901613260565b925050608086013567ffffffffffffffff81111561340f57600080fd5b61341b888289016131ec565b9150509295509295909350565b6000806040838503121561343b57600080fd5b600061344985828601613144565b925050602061345a858286016131ad565b9150509250929050565b6000806040838503121561347757600080fd5b600061348585828601613144565b925050602083013567ffffffffffffffff8111156134a257600080fd5b6134ae858286016131ec565b9150509250929050565b600080604083850312156134cb57600080fd5b60006134d985828601613144565b92505060206134ea85828601613260565b9150509250929050565b60008060006060848603121561350957600080fd5b600061351786828701613144565b935050602061352886828701613260565b925050604061353986828701613260565b9150509250925092565b6000806040838503121561355657600080fd5b600083013567ffffffffffffffff81111561357057600080fd5b61357c85828601613159565b925050602083013567ffffffffffffffff81111561359957600080fd5b6135a585828601613183565b9150509250929050565b6000602082840312156135c157600080fd5b60006135cf848285016131c2565b91505092915050565b6000602082840312156135ea57600080fd5b60006135f8848285016131d7565b91505092915050565b6000806000806060858703121561361757600080fd5b600085013567ffffffffffffffff81111561363157600080fd5b61363d87828801613216565b9450945050602061365087828801613260565b925050604061366187828801613260565b91505092959194509250565b60006020828403121561367f57600080fd5b600061368d84828501613260565b91505092915050565b600080604083850312156136a957600080fd5b60006136b785828601613260565b92505060206136c885828601613260565b9150509250929050565b60006136de8383613ad3565b60208301905092915050565b6136f3816143b1565b82525050565b6137028161433d565b82525050565b6137196137148261433d565b6144d5565b82525050565b6137288161432b565b82525050565b6000613739826141e6565b6137438185614214565b935061374e836141d6565b8060005b8381101561377f57815161376688826136d2565b975061377183614207565b925050600181019050613752565b5085935050505092915050565b6137958161434f565b82525050565b60006137a6826141f1565b6137b08185614225565b93506137c08185602086016143f6565b6137c9816145b2565b840191505092915050565b60006137e08385614236565b93506137ed8385846143e7565b6137f6836145b2565b840190509392505050565b600061380c826141fc565b6138168185614236565b93506138268185602086016143f6565b61382f816145b2565b840191505092915050565b6000613847603483614236565b9150613852826145dd565b604082019050919050565b600061386a601b83614236565b91506138758261462c565b602082019050919050565b600061388d602883614236565b915061389882614655565b604082019050919050565b60006138b0602883614236565b91506138bb826146a4565b604082019050919050565b60006138d3602b83614236565b91506138de826146f3565b604082019050919050565b60006138f6602683614236565b915061390182614742565b604082019050919050565b6000613919602483614236565b915061392482614791565b604082019050919050565b600061393c602983614236565b9150613947826147e0565b604082019050919050565b600061395f602583614236565b915061396a8261482f565b604082019050919050565b6000613982603283614236565b915061398d8261487e565b604082019050919050565b60006139a5601283614236565b91506139b0826148cd565b602082019050919050565b60006139c8602383614236565b91506139d3826148f6565b604082019050919050565b60006139eb602a83614236565b91506139f682614945565b604082019050919050565b6000613a0e602083614236565b9150613a1982614994565b602082019050919050565b6000613a31602783614236565b9150613a3c826149bd565b604082019050919050565b6000613a54602983614236565b9150613a5f82614a0c565b604082019050919050565b6000613a77602983614236565b9150613a8282614a5b565b604082019050919050565b6000613a9a602883614236565b9150613aa582614aaa565b604082019050919050565b6000613abd602183614236565b9150613ac882614af9565b604082019050919050565b613adc816143a7565b82525050565b613aeb816143a7565b82525050565b613b02613afd826143a7565b6144f9565b82525050565b6000613b14828b613af1565b602082019150613b24828a613af1565b602082019150613b348289613af1565b602082019150613b448288613af1565b602082019150613b548287613af1565b602082019150613b648286613af1565b602082019150613b748285613708565b601482019150613b848284613708565b6014820191508190509998505050505050505050565b6000602082019050613baf600083018461371f565b92915050565b6000602082019050613bca60008301846136f9565b92915050565b600060a082019050613be5600083018861371f565b613bf2602083018761371f565b8181036040830152613c04818661372e565b90508181036060830152613c18818561372e565b90508181036080830152613c2c818461379b565b90509695505050505050565b600060a082019050613c4d600083018861371f565b613c5a602083018761371f565b613c676040830186613ae2565b613c746060830185613ae2565b8181036080830152613c86818461379b565b90509695505050505050565b60006020820190508181036000830152613cac818461372e565b905092915050565b60006040820190508181036000830152613cce818561372e565b90508181036020830152613ce2818461372e565b90509392505050565b6000602082019050613d00600083018461378c565b92915050565b60006020820190508181036000830152613d208184613801565b905092915050565b60006080820190508181036000830152613d428187613801565b9050613d516020830186613ae2565b613d5e6040830185613ae2565b613d6b60608301846136f9565b95945050505050565b60006020820190508181036000830152613d8d8161383a565b9050919050565b60006020820190508181036000830152613dad8161385d565b9050919050565b60006020820190508181036000830152613dcd81613880565b9050919050565b60006020820190508181036000830152613ded816138a3565b9050919050565b60006020820190508181036000830152613e0d816138c6565b9050919050565b60006020820190508181036000830152613e2d816138e9565b9050919050565b60006020820190508181036000830152613e4d8161390c565b9050919050565b60006020820190508181036000830152613e6d8161392f565b9050919050565b60006020820190508181036000830152613e8d81613952565b9050919050565b60006020820190508181036000830152613ead81613975565b9050919050565b60006020820190508181036000830152613ecd81613998565b9050919050565b60006020820190508181036000830152613eed816139bb565b9050919050565b60006020820190508181036000830152613f0d816139de565b9050919050565b60006020820190508181036000830152613f2d81613a01565b9050919050565b60006020820190508181036000830152613f4d81613a24565b9050919050565b60006020820190508181036000830152613f6d81613a47565b9050919050565b60006020820190508181036000830152613f8d81613a6a565b9050919050565b60006020820190508181036000830152613fad81613a8d565b9050919050565b60006020820190508181036000830152613fcd81613ab0565b9050919050565b6000602082019050613fe96000830184613ae2565b92915050565b600060a0820190506140046000830189613ae2565b81810360208301526140178187896137d4565b90506140266040830186613ae2565b6140336060830185613ae2565b614040608083018461371f565b979650505050505050565b60006040820190506140606000830185613ae2565b61406d6020830184613ae2565b9392505050565b600060a0820190506140896000830188613ae2565b6140966020830187613ae2565b6140a36040830186613ae2565b6140b060608301856136f9565b6140bd60808301846136f9565b9695505050505050565b600060c0820190506140dc6000830189613ae2565b6140e96020830188613ae2565b6140f66040830187613ae2565b6141036060830186613ae2565b614110608083018561371f565b61411d60a08301846136ea565b979650505050505050565b6000614132614143565b905061413e828261445b565b919050565b6000604051905090565b600067ffffffffffffffff82111561416857614167614561565b5b602082029050602081019050919050565b600067ffffffffffffffff82111561419457614193614561565b5b602082029050602081019050919050565b600067ffffffffffffffff8211156141c0576141bf614561565b5b6141c9826145b2565b9050602081019050919050565b6000819050602082019050919050565b600081519050919050565b600081519050919050565b600081519050919050565b6000602082019050919050565b600082825260208201905092915050565b600082825260208201905092915050565b600082825260208201905092915050565b6000614252826143a7565b915061425d836143a7565b9250827fffffffffffffffffffffffffffffffffffffffffffffffffffffffffffffffff0382111561429257614291614503565b5b828201905092915050565b60006142a8826143a7565b91506142b3836143a7565b9250817fffffffffffffffffffffffffffffffffffffffffffffffffffffffffffffffff04831182151516156142ec576142eb614503565b5b828202905092915050565b6000614302826143a7565b915061430d836143a7565b9250828210156143205761431f614503565b5b828203905092915050565b600061433682614387565b9050919050565b600061434882614387565b9050919050565b60008115159050919050565b60007fffffffff0000000000000000000000000000000000000000000000000000000082169050919050565b600073ffffffffffffffffffffffffffffffffffffffff82169050919050565b6000819050919050565b60006143bc826143c3565b9050919050565b60006143ce826143d5565b9050919050565b60006143e082614387565b9050919050565b82818337600083830152505050565b60005b838110156144145780820151818401526020810190506143f9565b83811115614423576000848401525b50505050565b6000600282049050600182168061444157607f821691505b6020821081141561445557614454614532565b5b50919050565b614464826145b2565b810181811067ffffffffffffffff8211171561448357614482614561565b5b80604052505050565b6000614497826143a7565b91507fffffffffffffffffffffffffffffffffffffffffffffffffffffffffffffffff8214156144ca576144c9614503565b5b600182019050919050565b60006144e0826144e7565b9050919050565b60006144f2826145c3565b9050919050565b6000819050919050565b7f4e487b7100000000000000000000000000000000000000000000000000000000600052601160045260246000fd5b7f4e487b7100000000000000000000000000000000000000000000000000000000600052602260045260246000fd5b7f4e487b7100000000000000000000000000000000000000000000000000000000600052604160045260246000fd5b600060033d11156145af5760046000803e6145ac6000516145d0565b90505b90565b6000601f19601f8301169050919050565b60008160601b9050919050565b60008160e01c9050919050565b7f455243313135353a207472616e7366657220746f206e6f6e204552433131353560008201527f526563656976657220696d706c656d656e746572000000000000000000000000602082015250565b7f506c65617365207061792074686520657861637420616d6f756e740000000000600082015250565b7f455243313135353a204552433131353552656365697665722072656a6563746560008201527f6420746f6b656e73000000000000000000000000000000000000000000000000602082015250565b7f596f7520617265206e6f74207468652073656c6c6572206f662074686973207060008201527f726f647563742121000000000000000000000000000000000000000000000000602082015250565b7f455243313135353a2062616c616e636520717565727920666f7220746865207a60008201527f65726f2061646472657373000000000000000000000000000000000000000000602082015250565b7f4f776e61626c653a206e6577206f776e657220697320746865207a65726f206160008201527f6464726573730000000000000000000000000000000000000000000000000000602082015250565b7f455243313135353a206275726e20616d6f756e7420657863656564732062616c60008201527f616e636500000000000000000000000000000000000000000000000000000000602082015250565b7f455243313135353a2063616c6c6572206973206e6f74206f776e6572206e6f7260008201527f20617070726f7665640000000000000000000000000000000000000000000000602082015250565b7f455243313135353a207472616e7366657220746f20746865207a65726f20616460008201527f6472657373000000000000000000000000000000000000000000000000000000602082015250565b7f455243313135353a207472616e736665722063616c6c6572206973206e6f742060008201527f6f776e6572206e6f7220617070726f7665640000000000000000000000000000602082015250565b7f596f7520617265207468652073656c6c65720000000000000000000000000000600082015250565b7f455243313135353a206275726e2066726f6d20746865207a65726f206164647260008201527f6573730000000000000000000000000000000000000000000000000000000000602082015250565b7f455243313135353a20696e73756666696369656e742062616c616e636520666f60008201527f72207472616e7366657200000000000000000000000000000000000000000000602082015250565b7f4f776e61626c653a2063616c6c6572206973206e6f7420746865206f776e6572600082015250565b7f596f7520617265206e6f7420746865206275796572206f66207468697320707260008201527f6f64756374212100000000000000000000000000000000000000000000000000602082015250565b7f455243313135353a2073657474696e6720617070726f76616c2073746174757360008201527f20666f722073656c660000000000000000000000000000000000000000000000602082015250565b7f455243313135353a206163636f756e747320616e6420696473206c656e67746860008201527f206d69736d617463680000000000000000000000000000000000000000000000602082015250565b7f455243313135353a2069647320616e6420616d6f756e7473206c656e6774682060008201527f6d69736d61746368000000000000000000000000000000000000000000000000602082015250565b7f455243313135353a206d696e7420746f20746865207a65726f2061646472657360008201527f7300000000000000000000000000000000000000000000000000000000000000602082015250565b600060443d1015614b5857614bdb565b614b60614143565b60043d036004823e80513d602482011167ffffffffffffffff82111715614b88575050614bdb565b808201805167ffffffffffffffff811115614ba65750505050614bdb565b80602083010160043d038501811115614bc3575050505050614bdb565b614bd28260200185018661445b565b82955050505050505b90565b614be78161432b565b8114614bf257600080fd5b50565b614bfe8161434f565b8114614c0957600080fd5b50565b614c158161435b565b8114614c2057600080fd5b50565b614c2c816143a7565b8114614c3757600080fd5b5056fea2646970667358221220d28b5661ba836deae9067d17d14e3647618f95d5df87611208c446c7f8b838aa64736f6c6343000801003368747470733a2f2f75766f6a3238716e6839646a2e6d6f72616c6973686f73742e636f6d2f7b69647d2e6a736f6e",
  "immutableReferences": {},
  "source": "// SPDX-License-Identifier: MIT\npragma solidity ^0.8.0;\nimport \"contracts/NFT.sol\";\n\ncontract Marketplace is Receipt{\n   \n   address payable public Owner;\n   enum status{Available, Sold}\n   status currentStatus;\n   string xyz;\n  \n   enum orderStatus{OrderPlaced, OrderCancelled, OrderConfirmed, Dispatched}\n   orderStatus OrderStatus;\n   uint public receiptId;\n   uint public productId;\n   address payable Burn = payable(0x000000000000000000000000000000000000dEaD);\n   \n   constructor() {\n       Owner= payable(msg.sender);\n       Receipts.push(receipt(0,0,0,Burn,Burn));\n       Products.push(product(xyz, 0,0, Burn));\n   }\n   \n   struct product{\n       string name;\n       uint price;        // price per item\n       uint quantity;\n       address payable seller;\n     \n   }\n   //mapping (uint=>product) public Product;\n   event newProduct(uint productId, string name, uint price, uint quantity, address seller);\n   struct receipt{\n       uint productId;\n       uint quantity;\n       uint totalCost;\n       address payable buyer;\n       address payable seller;\n       \n   }\n   //mapping(uint=>receipt) public Receipt;\n   event newOrder(uint receiptId,uint productId,uint quantity, uint totalCost, address buyer,address seller);\n   receipt[] public Receipts;\n   product[] public Products;\n\n       \n   \n   modifier notSellor(uint _productId){\n       require (msg.sender != Products[_productId].seller, \"You are the seller\");\n       _;\n   }\n   \n   modifier cost(uint _price, uint _quantity){\n       require (msg.value==_price*_quantity,  \"Please pay the exact amount\");\n       _;\n   }\n   \n   modifier onlyBuyer(uint _receiptId){\n       require(Receipts[_receiptId].buyer==msg.sender, \"You are not the buyer of this product!!\");\n       _;\n   }\n   \n    modifier onlySeller(uint _receiptId){\n       require(Receipts[_receiptId].seller==msg.sender, \"You are not the seller of this product!!\");\n       _;\n   }\n   \n   \n   \n   \n    function listItem(string calldata _name, uint _price, uint _quantity) external {\n         productId++;\n         Products.push(product(_name, _price, _quantity, payable(msg.sender)));\n         if (_quantity>=1){\n             currentStatus = status.Available;\n             emit newProduct(productId, _name, _price, _quantity, msg.sender);\n         }\n         \n         \n        \n   }  \n   \n   function buy(uint _productId, uint _quantity) external payable notSellor(_productId) cost(Products[_productId].price, _quantity){\n       require (currentStatus== status.Available);\n       Products[_productId].quantity-=_quantity;\n       OrderStatus= orderStatus.OrderPlaced;\n       uint _totalCost= Products[_productId].price*_quantity;\n       receiptId++;\n       Receipts.push(receipt(_productId, _quantity, _totalCost, payable(msg.sender),Products[_productId].seller));\n       emit newOrder(receiptId, _productId, _quantity, Products[_productId].price*_quantity, msg.sender, Products[_productId].seller);\n       \n       \n   }\n   \n   function orderAccept(uint _receiptId) external payable onlySeller(_receiptId){\n       \n           OrderStatus=orderStatus.OrderConfirmed;\n       }\n    \n   function orderReject(uint _receiptId) external payable onlySeller(_receiptId){\n       \n           OrderStatus=orderStatus.OrderCancelled;\n           Receipts[_receiptId].buyer.transfer(Receipts[_receiptId].totalCost);\n       }\n   \n   function itemDelivered(uint _receiptId) public onlyBuyer(_receiptId) {\n       Receipts[_receiptId].seller.transfer(Receipts[_receiptId].totalCost);\n       bytes memory description= abi.encodePacked(block.timestamp, Receipts.length, block.difficulty, Receipts[_receiptId].productId, Receipts[_receiptId].quantity, Receipts[_receiptId].totalCost, Receipts[_receiptId].buyer, Receipts[_receiptId].seller);\n       mint(msg.sender, description);\n       mint(Receipts[_receiptId].seller, description);\n   }\n   \n//   function dispute(uint _receiptId) external payable {\n//       require(msg.sender==Receipts[_receiptId].buyer||msg.sender==Receipts[_receiptId].seller);\n//           owner.transfer(Receipts[_receiptId].totalCost);\n       \n//   }\n   \n//   function resolve(uint _receiptId, address payable _justice) public payable  {\n//       require(Receipts[_receiptId].totalCost==msg.value);\n//       require(msg.sender==owner);\n//       _justice.transfer(Receipts[_receiptId].totalCost);\n//   }\n    \n    \n}",
  "sourcePath": "/home/champ/Desktop/hackathon/B/contracts/Marketplace.sol",
  "compiler": {
    "name": "solc",
    "version": "0.8.1+commit.df193b15.Emscripten.clang"
  },
  "schemaVersion": "3.4.1",
  "updatedAt": "2021-09-27T15:06:25.736Z",
  "networkType": "ethereum",
  "devdoc": {
    "kind": "dev",
    "methods": {
      "balanceOf(address,uint256)": {
        "details": "See {IERC1155-balanceOf}. Requirements: - `account` cannot be the zero address."
      },
      "balanceOfBatch(address[],uint256[])": {
        "details": "See {IERC1155-balanceOfBatch}. Requirements: - `accounts` and `ids` must have the same length."
      },
      "isApprovedForAll(address,address)": {
        "details": "See {IERC1155-isApprovedForAll}."
      },
      "owner()": {
        "details": "Returns the address of the current owner."
      },
      "renounceOwnership()": {
        "details": "Leaves the contract without owner. It will not be possible to call `onlyOwner` functions anymore. Can only be called by the current owner. NOTE: Renouncing ownership will leave the contract without an owner, thereby removing any functionality that is only available to the owner."
      },
      "safeBatchTransferFrom(address,address,uint256[],uint256[],bytes)": {
        "details": "See {IERC1155-safeBatchTransferFrom}."
      },
      "safeTransferFrom(address,address,uint256,uint256,bytes)": {
        "details": "See {IERC1155-safeTransferFrom}."
      },
      "setApprovalForAll(address,bool)": {
        "details": "See {IERC1155-setApprovalForAll}."
      },
      "supportsInterface(bytes4)": {
        "details": "See {IERC165-supportsInterface}."
      },
      "transferOwnership(address)": {
        "details": "Transfers ownership of the contract to a new account (`newOwner`). Can only be called by the current owner."
      },
      "uri(uint256)": {
        "details": "See {IERC1155MetadataURI-uri}. This implementation returns the same URI for *all* token types. It relies on the token type ID substitution mechanism https://eips.ethereum.org/EIPS/eip-1155#metadata[defined in the EIP]. Clients calling this function must replace the `\\{id\\}` substring with the actual token type ID."
      }
    },
    "version": 1
  },
  "userdoc": {
    "kind": "user",
    "methods": {},
    "version": 1
  }
}