{
  "contractName": "Receipt",
  "abi": [
    {
      "inputs": [],
      "stateMutability": "nonpayable",
      "type": "constructor"
    },
    {
      "anonymous": false,
      "inputs": [
        {
          "indexed": true,
          "internalType": "address",
          "name": "account",
          "type": "address"
        },
        {
          "indexed": true,
          "internalType": "address",
          "name": "operator",
          "type": "address"
        },
        {
          "indexed": false,
          "internalType": "bool",
          "name": "approved",
          "type": "bool"
        }
      ],
      "name": "ApprovalForAll",
      "type": "event"
    },
    {
      "anonymous": false,
      "inputs": [
        {
          "indexed": true,
          "internalType": "address",
          "name": "previousOwner",
          "type": "address"
        },
        {
          "indexed": true,
          "internalType": "address",
          "name": "newOwner",
          "type": "address"
        }
      ],
      "name": "OwnershipTransferred",
      "type": "event"
    },
    {
      "anonymous": false,
      "inputs": [
        {
          "indexed": true,
          "internalType": "address",
          "name": "operator",
          "type": "address"
        },
        {
          "indexed": true,
          "internalType": "address",
          "name": "from",
          "type": "address"
        },
        {
          "indexed": true,
          "internalType": "address",
          "name": "to",
          "type": "address"
        },
        {
          "indexed": false,
          "internalType": "uint256[]",
          "name": "ids",
          "type": "uint256[]"
        },
        {
          "indexed": false,
          "internalType": "uint256[]",
          "name": "values",
          "type": "uint256[]"
        }
      ],
      "name": "TransferBatch",
      "type": "event"
    },
    {
      "anonymous": false,
      "inputs": [
        {
          "indexed": true,
          "internalType": "address",
          "name": "operator",
          "type": "address"
        },
        {
          "indexed": true,
          "internalType": "address",
          "name": "from",
          "type": "address"
        },
        {
          "indexed": true,
          "internalType": "address",
          "name": "to",
          "type": "address"
        },
        {
          "indexed": false,
          "internalType": "uint256",
          "name": "id",
          "type": "uint256"
        },
        {
          "indexed": false,
          "internalType": "uint256",
          "name": "value",
          "type": "uint256"
        }
      ],
      "name": "TransferSingle",
      "type": "event"
    },
    {
      "anonymous": false,
      "inputs": [
        {
          "indexed": false,
          "internalType": "string",
          "name": "value",
          "type": "string"
        },
        {
          "indexed": true,
          "internalType": "uint256",
          "name": "id",
          "type": "uint256"
        }
      ],
      "name": "URI",
      "type": "event"
    },
    {
      "inputs": [
        {
          "internalType": "address",
          "name": "account",
          "type": "address"
        },
        {
          "internalType": "uint256",
          "name": "id",
          "type": "uint256"
        }
      ],
      "name": "balanceOf",
      "outputs": [
        {
          "internalType": "uint256",
          "name": "",
          "type": "uint256"
        }
      ],
      "stateMutability": "view",
      "type": "function"
    },
    {
      "inputs": [
        {
          "internalType": "address[]",
          "name": "accounts",
          "type": "address[]"
        },
        {
          "internalType": "uint256[]",
          "name": "ids",
          "type": "uint256[]"
        }
      ],
      "name": "balanceOfBatch",
      "outputs": [
        {
          "internalType": "uint256[]",
          "name": "",
          "type": "uint256[]"
        }
      ],
      "stateMutability": "view",
      "type": "function"
    },
    {
      "inputs": [],
      "name": "buyerReceipt",
      "outputs": [
        {
          "internalType": "uint256",
          "name": "",
          "type": "uint256"
        }
      ],
      "stateMutability": "view",
      "type": "function"
    },
    {
      "inputs": [
        {
          "internalType": "address",
          "name": "account",
          "type": "address"
        },
        {
          "internalType": "address",
          "name": "operator",
          "type": "address"
        }
      ],
      "name": "isApprovedForAll",
      "outputs": [
        {
          "internalType": "bool",
          "name": "",
          "type": "bool"
        }
      ],
      "stateMutability": "view",
      "type": "function"
    },
    {
      "inputs": [],
      "name": "owner",
      "outputs": [
        {
          "internalType": "address",
          "name": "",
          "type": "address"
        }
      ],
      "stateMutability": "view",
      "type": "function"
    },
    {
      "inputs": [],
      "name": "renounceOwnership",
      "outputs": [],
      "stateMutability": "nonpayable",
      "type": "function"
    },
    {
      "inputs": [
        {
          "internalType": "address",
          "name": "from",
          "type": "address"
        },
        {
          "internalType": "address",
          "name": "to",
          "type": "address"
        },
        {
          "internalType": "uint256[]",
          "name": "ids",
          "type": "uint256[]"
        },
        {
          "internalType": "uint256[]",
          "name": "amounts",
          "type": "uint256[]"
        },
        {
          "internalType": "bytes",
          "name": "data",
          "type": "bytes"
        }
      ],
      "name": "safeBatchTransferFrom",
      "outputs": [],
      "stateMutability": "nonpayable",
      "type": "function"
    },
    {
      "inputs": [
        {
          "internalType": "address",
          "name": "from",
          "type": "address"
        },
        {
          "internalType": "address",
          "name": "to",
          "type": "address"
        },
        {
          "internalType": "uint256",
          "name": "id",
          "type": "uint256"
        },
        {
          "internalType": "uint256",
          "name": "amount",
          "type": "uint256"
        },
        {
          "internalType": "bytes",
          "name": "data",
          "type": "bytes"
        }
      ],
      "name": "safeTransferFrom",
      "outputs": [],
      "stateMutability": "nonpayable",
      "type": "function"
    },
    {
      "inputs": [],
      "name": "sellerReceipt",
      "outputs": [
        {
          "internalType": "uint256",
          "name": "",
          "type": "uint256"
        }
      ],
      "stateMutability": "view",
      "type": "function"
    },
    {
      "inputs": [
        {
          "internalType": "address",
          "name": "operator",
          "type": "address"
        },
        {
          "internalType": "bool",
          "name": "approved",
          "type": "bool"
        }
      ],
      "name": "setApprovalForAll",
      "outputs": [],
      "stateMutability": "nonpayable",
      "type": "function"
    },
    {
      "inputs": [
        {
          "internalType": "bytes4",
          "name": "interfaceId",
          "type": "bytes4"
        }
      ],
      "name": "supportsInterface",
      "outputs": [
        {
          "internalType": "bool",
          "name": "",
          "type": "bool"
        }
      ],
      "stateMutability": "view",
      "type": "function"
    },
    {
      "inputs": [
        {
          "internalType": "address",
          "name": "newOwner",
          "type": "address"
        }
      ],
      "name": "transferOwnership",
      "outputs": [],
      "stateMutability": "nonpayable",
      "type": "function"
    },
    {
      "inputs": [
        {
          "internalType": "uint256",
          "name": "",
          "type": "uint256"
        }
      ],
      "name": "uri",
      "outputs": [
        {
          "internalType": "string",
          "name": "",
          "type": "string"
        }
      ],
      "stateMutability": "view",
      "type": "function"
    },
    {
      "inputs": [
        {
          "internalType": "address",
          "name": "account",
          "type": "address"
        },
        {
          "internalType": "bytes",
          "name": "description",
          "type": "bytes"
        }
      ],
      "name": "mint",
      "outputs": [],
      "stateMutability": "nonpayable",
      "type": "function"
    },
    {
      "inputs": [
        {
          "internalType": "address",
          "name": "account",
          "type": "address"
        },
        {
          "internalType": "uint256",
          "name": "id",
          "type": "uint256"
        },
        {
          "internalType": "uint256",
          "name": "amount",
          "type": "uint256"
        }
      ],
      "name": "burn",
      "outputs": [],
      "stateMutability": "nonpayable",
      "type": "function"
    }
  ],
  "bytecode": "0x60806040523480156200001157600080fd5b506040518060600160405280602e8152602001620033fa602e91396200003d816200006460201b60201c565b506200005e620000526200008060201b60201c565b6200008860201b60201c565b62000263565b80600290805190602001906200007c9291906200014e565b5050565b600033905090565b6000600360009054906101000a900473ffffffffffffffffffffffffffffffffffffffff16905081600360006101000a81548173ffffffffffffffffffffffffffffffffffffffff021916908373ffffffffffffffffffffffffffffffffffffffff1602179055508173ffffffffffffffffffffffffffffffffffffffff168173ffffffffffffffffffffffffffffffffffffffff167f8be0079c531659141344cd1fd0a4f28419497f9722a3daafe3b4186f6b6457e060405160405180910390a35050565b8280546200015c90620001fe565b90600052602060002090601f016020900481019282620001805760008555620001cc565b82601f106200019b57805160ff1916838001178555620001cc565b82800160010185558215620001cc579182015b82811115620001cb578251825591602001919060010190620001ae565b5b509050620001db9190620001df565b5090565b5b80821115620001fa576000816000905550600101620001e0565b5090565b600060028204905060018216806200021757607f821691505b602082108114156200022e576200022d62000234565b5b50919050565b7f4e487b7100000000000000000000000000000000000000000000000000000000600052602260045260246000fd5b61318780620002736000396000f3fe608060405234801561001057600080fd5b50600436106100f45760003560e01c806381fca99911610097578063e985e9c511610066578063e985e9c514610271578063f242432a146102a1578063f2fde38b146102bd578063f5298aca146102d9576100f4565b806381fca999146101fd5780638da5cb5b1461021b578063a22cb46514610239578063b510391f14610255576100f4565b80630e89341c116100d35780630e89341c146101775780632eb2c2d6146101a75780634e1273f4146101c3578063715018a6146101f3576100f4565b8062fdd58e146100f957806301ffc9a714610129578063044fbeac14610159575b600080fd5b610113600480360381019061010e9190612006565b6102f5565b60405161012091906127fc565b60405180910390f35b610143600480360381019061013e91906120fd565b6103be565b60405161015091906125df565b60405180910390f35b6101616104a0565b60405161016e91906127fc565b60405180910390f35b610191600480360381019061018c919061214f565b6104a5565b60405161019e91906125fa565b60405180910390f35b6101c160048036038101906101bc9190611e28565b610539565b005b6101dd60048036038101906101d89190612091565b6105da565b6040516101ea9190612586565b60405180910390f35b6101fb61078b565b005b610205610813565b60405161021291906127fc565b60405180910390f35b610223610818565b60405161023091906124a9565b60405180910390f35b610253600480360381019061024e9190611f76565b610842565b005b61026f600480360381019061026a9190611fb2565b6109c3565b005b61028b60048036038101906102869190611dec565b6109d5565b60405161029891906125df565b60405180910390f35b6102bb60048036038101906102b69190611ee7565b610a69565b005b6102d760048036038101906102d29190611dc3565b610b0a565b005b6102f360048036038101906102ee9190612042565b610c02565b005b60008073ffffffffffffffffffffffffffffffffffffffff168373ffffffffffffffffffffffffffffffffffffffff161415610366576040517f08c379a000000000000000000000000000000000000000000000000000000000815260040161035d9061265c565b60405180910390fd5b60008083815260200190815260200160002060008473ffffffffffffffffffffffffffffffffffffffff1673ffffffffffffffffffffffffffffffffffffffff16815260200190815260200160002054905092915050565b60007fd9b67a26000000000000000000000000000000000000000000000000000000007bffffffffffffffffffffffffffffffffffffffffffffffffffffffff1916827bffffffffffffffffffffffffffffffffffffffffffffffffffffffff1916148061048957507f0e89341c000000000000000000000000000000000000000000000000000000007bffffffffffffffffffffffffffffffffffffffffffffffffffffffff1916827bffffffffffffffffffffffffffffffffffffffffffffffffffffffff1916145b80610499575061049882610c4a565b5b9050919050565b600081565b6060600280546104b490612a6b565b80601f01602080910402602001604051908101604052809291908181526020018280546104e090612a6b565b801561052d5780601f106105025761010080835404028352916020019161052d565b820191906000526020600020905b81548152906001019060200180831161051057829003601f168201915b50505050509050919050565b610541610cb4565b73ffffffffffffffffffffffffffffffffffffffff168573ffffffffffffffffffffffffffffffffffffffff161480610587575061058685610581610cb4565b6109d5565b5b6105c6576040517f08c379a00000000000000000000000000000000000000000000000000000000081526004016105bd906126fc565b60405180910390fd5b6105d38585858585610cbc565b5050505050565b60608151835114610620576040517f08c379a00000000000000000000000000000000000000000000000000000000081526004016106179061279c565b60405180910390fd5b6000835167ffffffffffffffff811115610663577f4e487b7100000000000000000000000000000000000000000000000000000000600052604160045260246000fd5b6040519080825280602002602001820160405280156106915781602001602082028036833780820191505090505b50905060005b84518110156107805761072a8582815181106106dc577f4e487b7100000000000000000000000000000000000000000000000000000000600052603260045260246000fd5b602002602001015185838151811061071d577f4e487b7100000000000000000000000000000000000000000000000000000000600052603260045260246000fd5b60200260200101516102f5565b828281518110610763577f4e487b7100000000000000000000000000000000000000000000000000000000600052603260045260246000fd5b6020026020010181815250508061077990612ace565b9050610697565b508091505092915050565b610793610cb4565b73ffffffffffffffffffffffffffffffffffffffff166107b1610818565b73ffffffffffffffffffffffffffffffffffffffff1614610807576040517f08c379a00000000000000000000000000000000000000000000000000000000081526004016107fe9061275c565b60405180910390fd5b610811600061101c565b565b600181565b6000600360009054906101000a900473ffffffffffffffffffffffffffffffffffffffff16905090565b8173ffffffffffffffffffffffffffffffffffffffff16610861610cb4565b73ffffffffffffffffffffffffffffffffffffffff1614156108b8576040517f08c379a00000000000000000000000000000000000000000000000000000000081526004016108af9061277c565b60405180910390fd5b80600160006108c5610cb4565b73ffffffffffffffffffffffffffffffffffffffff1673ffffffffffffffffffffffffffffffffffffffff16815260200190815260200160002060008473ffffffffffffffffffffffffffffffffffffffff1673ffffffffffffffffffffffffffffffffffffffff16815260200190815260200160002060006101000a81548160ff0219169083151502179055508173ffffffffffffffffffffffffffffffffffffffff16610972610cb4565b73ffffffffffffffffffffffffffffffffffffffff167f17307eab39ab6107e8899845ad3d59bd9653f200f220920489ca2b5937696c31836040516109b791906125df565b60405180910390a35050565b6109d18260006001846110e2565b5050565b6000600160008473ffffffffffffffffffffffffffffffffffffffff1673ffffffffffffffffffffffffffffffffffffffff16815260200190815260200160002060008373ffffffffffffffffffffffffffffffffffffffff1673ffffffffffffffffffffffffffffffffffffffff16815260200190815260200160002060009054906101000a900460ff16905092915050565b610a71610cb4565b73ffffffffffffffffffffffffffffffffffffffff168573ffffffffffffffffffffffffffffffffffffffff161480610ab75750610ab685610ab1610cb4565b6109d5565b5b610af6576040517f08c379a0000000000000000000000000000000000000000000000000000000008152600401610aed906126bc565b60405180910390fd5b610b038585858585611278565b5050505050565b610b12610cb4565b73ffffffffffffffffffffffffffffffffffffffff16610b30610818565b73ffffffffffffffffffffffffffffffffffffffff1614610b86576040517f08c379a0000000000000000000000000000000000000000000000000000000008152600401610b7d9061275c565b60405180910390fd5b600073ffffffffffffffffffffffffffffffffffffffff168173ffffffffffffffffffffffffffffffffffffffff161415610bf6576040517f08c379a0000000000000000000000000000000000000000000000000000000008152600401610bed9061267c565b60405180910390fd5b610bff8161101c565b50565b8273ffffffffffffffffffffffffffffffffffffffff163373ffffffffffffffffffffffffffffffffffffffff1614610c3a57600080fd5b610c458383836114fa565b505050565b60007f01ffc9a7000000000000000000000000000000000000000000000000000000007bffffffffffffffffffffffffffffffffffffffffffffffffffffffff1916827bffffffffffffffffffffffffffffffffffffffffffffffffffffffff1916149050919050565b600033905090565b8151835114610d00576040517f08c379a0000000000000000000000000000000000000000000000000000000008152600401610cf7906127bc565b60405180910390fd5b600073ffffffffffffffffffffffffffffffffffffffff168473ffffffffffffffffffffffffffffffffffffffff161415610d70576040517f08c379a0000000000000000000000000000000000000000000000000000000008152600401610d67906126dc565b60405180910390fd5b6000610d7a610cb4565b9050610d8a818787878787611717565b60005b8451811015610f87576000858281518110610dd1577f4e487b7100000000000000000000000000000000000000000000000000000000600052603260045260246000fd5b602002602001015190506000858381518110610e16577f4e487b7100000000000000000000000000000000000000000000000000000000600052603260045260246000fd5b60200260200101519050600080600084815260200190815260200160002060008b73ffffffffffffffffffffffffffffffffffffffff1673ffffffffffffffffffffffffffffffffffffffff16815260200190815260200160002054905081811015610eb7576040517f08c379a0000000000000000000000000000000000000000000000000000000008152600401610eae9061273c565b60405180910390fd5b81810360008085815260200190815260200160002060008c73ffffffffffffffffffffffffffffffffffffffff1673ffffffffffffffffffffffffffffffffffffffff168152602001908152602001600020819055508160008085815260200190815260200160002060008b73ffffffffffffffffffffffffffffffffffffffff1673ffffffffffffffffffffffffffffffffffffffff1681526020019081526020016000206000828254610f6c919061295f565b9250508190555050505080610f8090612ace565b9050610d8d565b508473ffffffffffffffffffffffffffffffffffffffff168673ffffffffffffffffffffffffffffffffffffffff168273ffffffffffffffffffffffffffffffffffffffff167f4a39dc06d4c0dbc64b70af90fd698a233a518aa5d07e595d983b8c0526c8f7fb8787604051610ffe9291906125a8565b60405180910390a461101481878787878761171f565b505050505050565b6000600360009054906101000a900473ffffffffffffffffffffffffffffffffffffffff16905081600360006101000a81548173ffffffffffffffffffffffffffffffffffffffff021916908373ffffffffffffffffffffffffffffffffffffffff1602179055508173ffffffffffffffffffffffffffffffffffffffff168173ffffffffffffffffffffffffffffffffffffffff167f8be0079c531659141344cd1fd0a4f28419497f9722a3daafe3b4186f6b6457e060405160405180910390a35050565b600073ffffffffffffffffffffffffffffffffffffffff168473ffffffffffffffffffffffffffffffffffffffff161415611152576040517f08c379a0000000000000000000000000000000000000000000000000000000008152600401611149906127dc565b60405180910390fd5b600061115c610cb4565b905061117d8160008761116e88611906565b61117788611906565b87611717565b8260008086815260200190815260200160002060008773ffffffffffffffffffffffffffffffffffffffff1673ffffffffffffffffffffffffffffffffffffffff16815260200190815260200160002060008282546111dc919061295f565b925050819055508473ffffffffffffffffffffffffffffffffffffffff16600073ffffffffffffffffffffffffffffffffffffffff168273ffffffffffffffffffffffffffffffffffffffff167fc3d58168c5ae7397731d063d5bbf3d657854427343f4c083240f7aacaa2d0f62878760405161125a929190612817565b60405180910390a4611271816000878787876119cc565b5050505050565b600073ffffffffffffffffffffffffffffffffffffffff168473ffffffffffffffffffffffffffffffffffffffff1614156112e8576040517f08c379a00000000000000000000000000000000000000000000000000000000081526004016112df906126dc565b60405180910390fd5b60006112f2610cb4565b905061131281878761130388611906565b61130c88611906565b87611717565b600080600086815260200190815260200160002060008873ffffffffffffffffffffffffffffffffffffffff1673ffffffffffffffffffffffffffffffffffffffff168152602001908152602001600020549050838110156113a9576040517f08c379a00000000000000000000000000000000000000000000000000000000081526004016113a09061273c565b60405180910390fd5b83810360008087815260200190815260200160002060008973ffffffffffffffffffffffffffffffffffffffff1673ffffffffffffffffffffffffffffffffffffffff168152602001908152602001600020819055508360008087815260200190815260200160002060008873ffffffffffffffffffffffffffffffffffffffff1673ffffffffffffffffffffffffffffffffffffffff168152602001908152602001600020600082825461145e919061295f565b925050819055508573ffffffffffffffffffffffffffffffffffffffff168773ffffffffffffffffffffffffffffffffffffffff168373ffffffffffffffffffffffffffffffffffffffff167fc3d58168c5ae7397731d063d5bbf3d657854427343f4c083240f7aacaa2d0f6288886040516114db929190612817565b60405180910390a46114f18288888888886119cc565b50505050505050565b600073ffffffffffffffffffffffffffffffffffffffff168373ffffffffffffffffffffffffffffffffffffffff16141561156a576040517f08c379a00000000000000000000000000000000000000000000000000000000081526004016115619061271c565b60405180910390fd5b6000611574610cb4565b90506115a48185600061158687611906565b61158f87611906565b60405180602001604052806000815250611717565b600080600085815260200190815260200160002060008673ffffffffffffffffffffffffffffffffffffffff1673ffffffffffffffffffffffffffffffffffffffff1681526020019081526020016000205490508281101561163b576040517f08c379a00000000000000000000000000000000000000000000000000000000081526004016116329061269c565b60405180910390fd5b82810360008086815260200190815260200160002060008773ffffffffffffffffffffffffffffffffffffffff1673ffffffffffffffffffffffffffffffffffffffff16815260200190815260200160002081905550600073ffffffffffffffffffffffffffffffffffffffff168573ffffffffffffffffffffffffffffffffffffffff168373ffffffffffffffffffffffffffffffffffffffff167fc3d58168c5ae7397731d063d5bbf3d657854427343f4c083240f7aacaa2d0f628787604051611708929190612817565b60405180910390a45050505050565b505050505050565b61173e8473ffffffffffffffffffffffffffffffffffffffff16611bb3565b156118fe578373ffffffffffffffffffffffffffffffffffffffff1663bc197c8187878686866040518663ffffffff1660e01b81526004016117849594939291906124c4565b602060405180830381600087803b15801561179e57600080fd5b505af19250505080156117cf57506040513d601f19601f820116820180604052508101906117cc9190612126565b60015b611875576117db612ba4565b806308c379a0141561183857506117f061305f565b806117fb575061183a565b806040517f08c379a000000000000000000000000000000000000000000000000000000000815260040161182f91906125fa565b60405180910390fd5b505b6040517f08c379a000000000000000000000000000000000000000000000000000000000815260040161186c9061261c565b60405180910390fd5b63bc197c8160e01b7bffffffffffffffffffffffffffffffffffffffffffffffffffffffff1916817bffffffffffffffffffffffffffffffffffffffffffffffffffffffff1916146118fc576040517f08c379a00000000000000000000000000000000000000000000000000000000081526004016118f39061263c565b60405180910390fd5b505b505050505050565b60606000600167ffffffffffffffff81111561194b577f4e487b7100000000000000000000000000000000000000000000000000000000600052604160045260246000fd5b6040519080825280602002602001820160405280156119795781602001602082028036833780820191505090505b50905082816000815181106119b7577f4e487b7100000000000000000000000000000000000000000000000000000000600052603260045260246000fd5b60200260200101818152505080915050919050565b6119eb8473ffffffffffffffffffffffffffffffffffffffff16611bb3565b15611bab578373ffffffffffffffffffffffffffffffffffffffff1663f23a6e6187878686866040518663ffffffff1660e01b8152600401611a3195949392919061252c565b602060405180830381600087803b158015611a4b57600080fd5b505af1925050508015611a7c57506040513d601f19601f82011682018060405250810190611a799190612126565b60015b611b2257611a88612ba4565b806308c379a01415611ae55750611a9d61305f565b80611aa85750611ae7565b806040517f08c379a0000000000000000000000000000000000000000000000000000000008152600401611adc91906125fa565b60405180910390fd5b505b6040517f08c379a0000000000000000000000000000000000000000000000000000000008152600401611b199061261c565b60405180910390fd5b63f23a6e6160e01b7bffffffffffffffffffffffffffffffffffffffffffffffffffffffff1916817bffffffffffffffffffffffffffffffffffffffffffffffffffffffff191614611ba9576040517f08c379a0000000000000000000000000000000000000000000000000000000008152600401611ba09061263c565b60405180910390fd5b505b505050505050565b600080823b905060008111915050919050565b6000611bd9611bd484612865565b612840565b90508083825260208201905082856020860282011115611bf857600080fd5b60005b85811015611c285781611c0e8882611cdc565b845260208401935060208301925050600181019050611bfb565b5050509392505050565b6000611c45611c4084612891565b612840565b90508083825260208201905082856020860282011115611c6457600080fd5b60005b85811015611c945781611c7a8882611dae565b845260208401935060208301925050600181019050611c67565b5050509392505050565b6000611cb1611cac846128bd565b612840565b905082815260208101848484011115611cc957600080fd5b611cd4848285612a29565b509392505050565b600081359050611ceb816130f5565b92915050565b600082601f830112611d0257600080fd5b8135611d12848260208601611bc6565b91505092915050565b600082601f830112611d2c57600080fd5b8135611d3c848260208601611c32565b91505092915050565b600081359050611d548161310c565b92915050565b600081359050611d6981613123565b92915050565b600081519050611d7e81613123565b92915050565b600082601f830112611d9557600080fd5b8135611da5848260208601611c9e565b91505092915050565b600081359050611dbd8161313a565b92915050565b600060208284031215611dd557600080fd5b6000611de384828501611cdc565b91505092915050565b60008060408385031215611dff57600080fd5b6000611e0d85828601611cdc565b9250506020611e1e85828601611cdc565b9150509250929050565b600080600080600060a08688031215611e4057600080fd5b6000611e4e88828901611cdc565b9550506020611e5f88828901611cdc565b945050604086013567ffffffffffffffff811115611e7c57600080fd5b611e8888828901611d1b565b935050606086013567ffffffffffffffff811115611ea557600080fd5b611eb188828901611d1b565b925050608086013567ffffffffffffffff811115611ece57600080fd5b611eda88828901611d84565b9150509295509295909350565b600080600080600060a08688031215611eff57600080fd5b6000611f0d88828901611cdc565b9550506020611f1e88828901611cdc565b9450506040611f2f88828901611dae565b9350506060611f4088828901611dae565b925050608086013567ffffffffffffffff811115611f5d57600080fd5b611f6988828901611d84565b9150509295509295909350565b60008060408385031215611f8957600080fd5b6000611f9785828601611cdc565b9250506020611fa885828601611d45565b9150509250929050565b60008060408385031215611fc557600080fd5b6000611fd385828601611cdc565b925050602083013567ffffffffffffffff811115611ff057600080fd5b611ffc85828601611d84565b9150509250929050565b6000806040838503121561201957600080fd5b600061202785828601611cdc565b925050602061203885828601611dae565b9150509250929050565b60008060006060848603121561205757600080fd5b600061206586828701611cdc565b935050602061207686828701611dae565b925050604061208786828701611dae565b9150509250925092565b600080604083850312156120a457600080fd5b600083013567ffffffffffffffff8111156120be57600080fd5b6120ca85828601611cf1565b925050602083013567ffffffffffffffff8111156120e757600080fd5b6120f385828601611d1b565b9150509250929050565b60006020828403121561210f57600080fd5b600061211d84828501611d5a565b91505092915050565b60006020828403121561213857600080fd5b600061214684828501611d6f565b91505092915050565b60006020828403121561216157600080fd5b600061216f84828501611dae565b91505092915050565b6000612184838361248b565b60208301905092915050565b612199816129b5565b82525050565b60006121aa826128fe565b6121b4818561292c565b93506121bf836128ee565b8060005b838110156121f05781516121d78882612178565b97506121e28361291f565b9250506001810190506121c3565b5085935050505092915050565b612206816129c7565b82525050565b600061221782612909565b612221818561293d565b9350612231818560208601612a38565b61223a81612bc6565b840191505092915050565b600061225082612914565b61225a818561294e565b935061226a818560208601612a38565b61227381612bc6565b840191505092915050565b600061228b60348361294e565b915061229682612be4565b604082019050919050565b60006122ae60288361294e565b91506122b982612c33565b604082019050919050565b60006122d1602b8361294e565b91506122dc82612c82565b604082019050919050565b60006122f460268361294e565b91506122ff82612cd1565b604082019050919050565b600061231760248361294e565b915061232282612d20565b604082019050919050565b600061233a60298361294e565b915061234582612d6f565b604082019050919050565b600061235d60258361294e565b915061236882612dbe565b604082019050919050565b600061238060328361294e565b915061238b82612e0d565b604082019050919050565b60006123a360238361294e565b91506123ae82612e5c565b604082019050919050565b60006123c6602a8361294e565b91506123d182612eab565b604082019050919050565b60006123e960208361294e565b91506123f482612efa565b602082019050919050565b600061240c60298361294e565b915061241782612f23565b604082019050919050565b600061242f60298361294e565b915061243a82612f72565b604082019050919050565b600061245260288361294e565b915061245d82612fc1565b604082019050919050565b600061247560218361294e565b915061248082613010565b604082019050919050565b61249481612a1f565b82525050565b6124a381612a1f565b82525050565b60006020820190506124be6000830184612190565b92915050565b600060a0820190506124d96000830188612190565b6124e66020830187612190565b81810360408301526124f8818661219f565b9050818103606083015261250c818561219f565b90508181036080830152612520818461220c565b90509695505050505050565b600060a0820190506125416000830188612190565b61254e6020830187612190565b61255b604083018661249a565b612568606083018561249a565b818103608083015261257a818461220c565b90509695505050505050565b600060208201905081810360008301526125a0818461219f565b905092915050565b600060408201905081810360008301526125c2818561219f565b905081810360208301526125d6818461219f565b90509392505050565b60006020820190506125f460008301846121fd565b92915050565b600060208201905081810360008301526126148184612245565b905092915050565b600060208201905081810360008301526126358161227e565b9050919050565b60006020820190508181036000830152612655816122a1565b9050919050565b60006020820190508181036000830152612675816122c4565b9050919050565b60006020820190508181036000830152612695816122e7565b9050919050565b600060208201905081810360008301526126b58161230a565b9050919050565b600060208201905081810360008301526126d58161232d565b9050919050565b600060208201905081810360008301526126f581612350565b9050919050565b6000602082019050818103600083015261271581612373565b9050919050565b6000602082019050818103600083015261273581612396565b9050919050565b60006020820190508181036000830152612755816123b9565b9050919050565b60006020820190508181036000830152612775816123dc565b9050919050565b60006020820190508181036000830152612795816123ff565b9050919050565b600060208201905081810360008301526127b581612422565b9050919050565b600060208201905081810360008301526127d581612445565b9050919050565b600060208201905081810360008301526127f581612468565b9050919050565b6000602082019050612811600083018461249a565b92915050565b600060408201905061282c600083018561249a565b612839602083018461249a565b9392505050565b600061284a61285b565b90506128568282612a9d565b919050565b6000604051905090565b600067ffffffffffffffff8211156128805761287f612b75565b5b602082029050602081019050919050565b600067ffffffffffffffff8211156128ac576128ab612b75565b5b602082029050602081019050919050565b600067ffffffffffffffff8211156128d8576128d7612b75565b5b6128e182612bc6565b9050602081019050919050565b6000819050602082019050919050565b600081519050919050565b600081519050919050565b600081519050919050565b6000602082019050919050565b600082825260208201905092915050565b600082825260208201905092915050565b600082825260208201905092915050565b600061296a82612a1f565b915061297583612a1f565b9250827fffffffffffffffffffffffffffffffffffffffffffffffffffffffffffffffff038211156129aa576129a9612b17565b5b828201905092915050565b60006129c0826129ff565b9050919050565b60008115159050919050565b60007fffffffff0000000000000000000000000000000000000000000000000000000082169050919050565b600073ffffffffffffffffffffffffffffffffffffffff82169050919050565b6000819050919050565b82818337600083830152505050565b60005b83811015612a56578082015181840152602081019050612a3b565b83811115612a65576000848401525b50505050565b60006002820490506001821680612a8357607f821691505b60208210811415612a9757612a96612b46565b5b50919050565b612aa682612bc6565b810181811067ffffffffffffffff82111715612ac557612ac4612b75565b5b80604052505050565b6000612ad982612a1f565b91507fffffffffffffffffffffffffffffffffffffffffffffffffffffffffffffffff821415612b0c57612b0b612b17565b5b600182019050919050565b7f4e487b7100000000000000000000000000000000000000000000000000000000600052601160045260246000fd5b7f4e487b7100000000000000000000000000000000000000000000000000000000600052602260045260246000fd5b7f4e487b7100000000000000000000000000000000000000000000000000000000600052604160045260246000fd5b600060033d1115612bc35760046000803e612bc0600051612bd7565b90505b90565b6000601f19601f8301169050919050565b60008160e01c9050919050565b7f455243313135353a207472616e7366657220746f206e6f6e204552433131353560008201527f526563656976657220696d706c656d656e746572000000000000000000000000602082015250565b7f455243313135353a204552433131353552656365697665722072656a6563746560008201527f6420746f6b656e73000000000000000000000000000000000000000000000000602082015250565b7f455243313135353a2062616c616e636520717565727920666f7220746865207a60008201527f65726f2061646472657373000000000000000000000000000000000000000000602082015250565b7f4f776e61626c653a206e6577206f776e657220697320746865207a65726f206160008201527f6464726573730000000000000000000000000000000000000000000000000000602082015250565b7f455243313135353a206275726e20616d6f756e7420657863656564732062616c60008201527f616e636500000000000000000000000000000000000000000000000000000000602082015250565b7f455243313135353a2063616c6c6572206973206e6f74206f776e6572206e6f7260008201527f20617070726f7665640000000000000000000000000000000000000000000000602082015250565b7f455243313135353a207472616e7366657220746f20746865207a65726f20616460008201527f6472657373000000000000000000000000000000000000000000000000000000602082015250565b7f455243313135353a207472616e736665722063616c6c6572206973206e6f742060008201527f6f776e6572206e6f7220617070726f7665640000000000000000000000000000602082015250565b7f455243313135353a206275726e2066726f6d20746865207a65726f206164647260008201527f6573730000000000000000000000000000000000000000000000000000000000602082015250565b7f455243313135353a20696e73756666696369656e742062616c616e636520666f60008201527f72207472616e7366657200000000000000000000000000000000000000000000602082015250565b7f4f776e61626c653a2063616c6c6572206973206e6f7420746865206f776e6572600082015250565b7f455243313135353a2073657474696e6720617070726f76616c2073746174757360008201527f20666f722073656c660000000000000000000000000000000000000000000000602082015250565b7f455243313135353a206163636f756e747320616e6420696473206c656e67746860008201527f206d69736d617463680000000000000000000000000000000000000000000000602082015250565b7f455243313135353a2069647320616e6420616d6f756e7473206c656e6774682060008201527f6d69736d61746368000000000000000000000000000000000000000000000000602082015250565b7f455243313135353a206d696e7420746f20746865207a65726f2061646472657360008201527f7300000000000000000000000000000000000000000000000000000000000000602082015250565b600060443d101561306f576130f2565b61307761285b565b60043d036004823e80513d602482011167ffffffffffffffff8211171561309f5750506130f2565b808201805167ffffffffffffffff8111156130bd57505050506130f2565b80602083010160043d0385018111156130da5750505050506130f2565b6130e982602001850186612a9d565b82955050505050505b90565b6130fe816129b5565b811461310957600080fd5b50565b613115816129c7565b811461312057600080fd5b50565b61312c816129d3565b811461313757600080fd5b50565b61314381612a1f565b811461314e57600080fd5b5056fea2646970667358221220622e786d192584f32b1a89bf796ce47f20e85eea52bf113de029cc5819200d5364736f6c6343000801003368747470733a2f2f75766f6a3238716e6839646a2e6d6f72616c6973686f73742e636f6d2f7b69647d2e6a736f6e",
  "immutableReferences": {},
  "source": "// SPDX-License-Identifier: MIT\npragma solidity ^0.8.0;\n\nimport \"@openzeppelin/contracts/token/ERC1155/ERC1155.sol\";\nimport \"@openzeppelin/contracts/utils/Counters.sol\";\nimport \"@openzeppelin/contracts/access/Ownable.sol\";\n\ncontract Receipt is ERC1155, Ownable{\n    uint public constant buyerReceipt = 0;\n    uint public constant sellerReceipt = 1;\n\n    using Counters for Counters.Counter;\n    Counters.Counter private _tokenIds;\n\n    constructor () ERC1155(\"https://uvoj28qnh9dj.moralishost.com/{id}.json\"){\n        \n       \n    }\n    //  function _mint(\n    //     address account,\n    //     uint256 id,\n    //     uint256 amount,\n    //     bytes memory data\n    // )\n\n    function mint(address account, bytes memory description) public{\n          _mint(account, buyerReceipt, 1, description);\n    }\n\n    function burn(address account, uint id, uint amount) public{\n        require(msg.sender==account);\n        _burn(account, id, amount);\n    }\n\n    // struct Item{\n    //     uint id;\n    //     address creator;\n    //     string uri;\n    // }\n    // mapping (uint=>Item) public Items;\n\n    // function createItem(string memory uri) public returns(uint){\n    //     _tokenIds.increment();\n    //     uint newItemId = _tokenIds.current();\n    //     _mint(msg.sender, newItemId, 1,\"\");\n    //     Items[newItemId] = Item(newItemId, msg.sender, uri);\n    //     return newItemId;\n    // }\n\n}",
  "sourcePath": "/home/champ/Desktop/hackathon/B/contracts/NFT.sol",
  "compiler": {
    "name": "solc",
    "version": "0.8.1+commit.df193b15.Emscripten.clang"
  },
  "schemaVersion": "3.4.1",
  "updatedAt": "2021-09-27T14:56:57.623Z",
  "devdoc": {
    "kind": "dev",
    "methods": {
      "balanceOf(address,uint256)": {
        "details": "See {IERC1155-balanceOf}. Requirements: - `account` cannot be the zero address."
      },
      "balanceOfBatch(address[],uint256[])": {
        "details": "See {IERC1155-balanceOfBatch}. Requirements: - `accounts` and `ids` must have the same length."
      },
      "isApprovedForAll(address,address)": {
        "details": "See {IERC1155-isApprovedForAll}."
      },
      "owner()": {
        "details": "Returns the address of the current owner."
      },
      "renounceOwnership()": {
        "details": "Leaves the contract without owner. It will not be possible to call `onlyOwner` functions anymore. Can only be called by the current owner. NOTE: Renouncing ownership will leave the contract without an owner, thereby removing any functionality that is only available to the owner."
      },
      "safeBatchTransferFrom(address,address,uint256[],uint256[],bytes)": {
        "details": "See {IERC1155-safeBatchTransferFrom}."
      },
      "safeTransferFrom(address,address,uint256,uint256,bytes)": {
        "details": "See {IERC1155-safeTransferFrom}."
      },
      "setApprovalForAll(address,bool)": {
        "details": "See {IERC1155-setApprovalForAll}."
      },
      "supportsInterface(bytes4)": {
        "details": "See {IERC165-supportsInterface}."
      },
      "transferOwnership(address)": {
        "details": "Transfers ownership of the contract to a new account (`newOwner`). Can only be called by the current owner."
      },
      "uri(uint256)": {
        "details": "See {IERC1155MetadataURI-uri}. This implementation returns the same URI for *all* token types. It relies on the token type ID substitution mechanism https://eips.ethereum.org/EIPS/eip-1155#metadata[defined in the EIP]. Clients calling this function must replace the `\\{id\\}` substring with the actual token type ID."
      }
    },
    "version": 1
  },
  "userdoc": {
    "kind": "user",
    "methods": {},
    "version": 1
  }
}